:020000041000EA
:1000000000B5324B212058609868022188439860DF
:10001000D860186158612E4B002199600221596106
:100020000121F02299502B49196001219960352056
:1000300000F044F80222904214D00621196600F024
:1000400034F8196E01211966002018661A6600F04E
:100050002CF8196E196E196E052000F02FF8012189
:100060000842F9D1002199601B49196000215960AB
:100070001A491B48016001219960EB211966A021F2
:10008000196600F012F800219960164914480160C1
:100090000121996001BC002800D000471248134993
:1000A000086003C880F30888084703B5996A0420EC
:1000B0000142FBD001200142F8D103BD02B5186610
:1000C0001866FFF7F2FF186E186E02BD00000240BE
:1000D000000000180000070000035F00212200005C
:1000E000F4000018222000A00001001008ED00E03C
:1000F00000000000000000000000000074B24E7A12
:1001000000200420F7010010C3010010C5010010F9
:10011000C1010010C1010010C1010010C101001097
:10012000C1010010C1010010C1010010C701001081
:10013000C1010010C1010010C9010010CB01001065
:10014000CD010010CD010010CD010010CD01001037
:10015000CD010010CD010010CD010010CD01001027
:10016000CD010010CD010010CD010010CD01001017
:10017000CD010010CD010010CD010010CD01001007
:10018000CD010010CD010010CD010010CD010010F7
:10019000CD010010CD010010CD010010CD010010E7
:1001A000CD010010CD010010CD010010CD010010D7
:1001B000CD010010CD010010CD010010CD010010C7
:1001C00000BE00BE00BE00BE00BE00BEEFF3058054
:1001D000103800BEF2EB88712C0500104C050010A1
:1001E0003802001090A31AE721482249086006C887
:1001F00081F30888104720480068002801D01C4877
:10020000F3E70DA40ECC002902D000F012F8F9E7B4
:100210001A491B4A002000E001C19142FCD1194952
:100220008847194988471949884700BEFDE701C931
:1002300001C29A42FBD370474C050010C000002059
:1002400064380120F03C0110703801201879012039
:10025000987D01100000042000000420987D01100A
:10026000001004200010042000000000704700006F
:100270000000000008ED00E0000000D01879012027
:10028000D0B00120816B002051100020796B00203C
:1002900009020110B0B0A800FF100D010402060809
:1002A0000101000000000000F1010110B0AA0100EE
:1002B000FF10290118323400007204AA01037C2EB9
:1002C0000000C60118EE0100E8010E000002000166
:1002D0007D00000000000000C45501108001018174
:1002E000B0B0AB1000000000B1010110B0B0AA0026
:1002F000FFFF0100A5010110F0801401B0B0B0AB08
:10030000FF1015010B2696080000FE080482090163
:10031000010000000000000081010110F0800401D4
:10032000B0B0B0ABFF101D0113320440013C0456C5
:1003300001840146D00100D8010400000100000042
:100340000000000076B20181B0AB308000000000F8
:10035000800A0181B0B0ABF0000000003F020181D3
:10036000B0AB30800000000080040181B0B0ABF081
:040370000000000089
:10037400408E0010B0B0A880708E00100100000004
:10038400DC8E0010B0AB02800C8F0010B0AB048088
:100394008C8F0010AB08B180A88F00100100000002
:1003A400D88F0010B0A90480049000100100000050
:1003B4009C900010AB08B180B890001001000000C0
:1003C4000C920010C8FEFF7F149200100100000080
:1003D4001C920010B0B0A8802C9200100100000004
:1003E4003C920010B0B0A880689200100100000098
:1003F400AC920010B0B0AA80D8920010B0B0A8801F
:1004040040930010A0FEFF7F4C94001001000000F8
:10041400ECFB0010C4FEFF7FA0FC001001000000F4
:1004240068FD0010C0FEFF7FD4FD0010B0B0A880AE
:100434005CFE00100100000084FE0010AB708080A0
:1004440080FF0010B0B0A880B8FF0010AB08B180E6
:10045400440001109CFEFF7FC8040110010000004D
:100464004C050110B0FEFF7F2C06011001000000B6
:10047400DC060110B0A9028060070110B0B0A880AA
:10048400B007011001000000B8070110B0B0AA8045
:10049400E8070110ACFEFF7FA8080110AA3F3980CD
:1004A400F0080110B0B0A880FC080110B0B0AA8018
:1004B40038090110B0B0A8804C09011001000000F7
:1004C40048090110B0B0A8805009011001000000D3
:1004D400000A0110AA0FB280640A011070FEFF7FA7
:1004E400380D0110B0B0A880540D01106CFEFF7FD0
:1004F400001001100100000070110110008404803C
:1005040080110110B0B0A8808011011058FEFF7F47
:10051400781401100084048098140110B0B0A880ED
:08052400B014011001000000F9
:10052C00A0530120AC530120B8530120C453012027
:10053C00D0530120DC530120E85301204457012003
:10054C00F8B5C04606480749091A8B10C90FC918D7
:10055C0010B5491003D0044B002B00D0984710BDA8
:10056C00187901201879012000000000054B10B506
:10057C00002B03D00449054800E000BFFFF7E2FF61
:10058C0010BDC0460000000088B001206438012076
:10059C00A423082170B5FF24124A1348D150134AE2
:1005AC000168136815685B1AA343491BC9180160DD
:1005BC000F481B0A01681B044B401B0C0D490E4EC7
:1005CC001B040B603568536852685B1BA343AD1A60
:1005DC00ED18356002681B021B0C53401B041B0CEE
:1005EC000B6070BD000005408CA4012094720120AA
:1005FC00480005404810054090A40120F0B5502358
:10060C0087B017266A460405240F1C436E44AF338B
:10061C0093750D00307003F033FB00231C4A1D4F03
:10062C0012184B41802109068B4202D301221A4B2E
:10063C0052420292039300233200009321003800AF
:10064C00013308F03FFE00281CDD03F019FB0023EA
:10065C000F4A12184B41802109068B4202D301220A
:10066C000D4B524202920393002316220093210059
:10067C00380001336A4408F049FE002802DD6B465D
:10068C00987D02E0012300202B7007B0F0BDC0461E
:10069C001027000060730120FFFFFF7F70B508F08A
:1006AC00A3FF0E4D280008F0C5FF0D4C00280ED1FD
:1006BC000C4B1C60186808F011FF8D2301225B00A5
:1006CC00E254094B20001C6013F012FB70BD20009B
:1006DC0000F05EFF280008F0C9FFE9E74084012024
:1006EC00187901204494012048A4012010B5024B34
:1006FC00186813F0F3FB10BD48A4012070B5D02688
:10070C00012501220021072003F018FE01220021FF
:10071C00062003F013FE012200210520360603F00B
:10072C000DFE0120002103F0D3F972687468736820
:10073C00A4095B092C402B401B01A4001C43D309CA
:10074C002B400022012107201C4303F0F7FD00225F
:10075C000121062003F0F2FD00220121052003F007
:10076C00EDFD0120002103F0B3F972687368D20922
:10077C002A409B09716852002B401443DB001C4338
:10078C004B092B405B010122002107201C4303F085
:10079C00D5FD01220021062003F0D0FD012200210D
:1007AC00052003F0CBFD2A2C05D0302C03D0FF20E4
:1007BC000C2C00D070BDE0B2FCE7C046F0B54E4644
:1007CC00DE465746454603008C46E0B563441B792C
:1007DC0085B0994601900291002B00D135E28046FC
:1007EC008B00039363441B01984444460C20205611
:1007FC0004F0EEFEE84904F0B4FE071CA06804F017
:10080C00E7FE00218246381C04F094FE0021041CF3
:10081C00504604F08FFE391C051C381C04F0A1FE58
:10082C00002104F087FE391C061C504604F099FE8A
:10083C00002104F07FFE4A46071C012A00D1A5E1E5
:10084C0042461420105604F0C3FED34904F089FE2E
:10085C0042468246106904F0BBFE51468346201C7A
:10086C0004F068FE5946041C281C04F063FE514633
:10087C00051C504604F075FE011C301C04F05AFE99
:10088C005146061C584604F06CFE011C381C04F042
:10089C0051FE4A46071C022A00D177E142461C2031
:1008AC00105604F095FEBC4904F05BFE42468246AD
:1008BC00906904F08DFE51468346201C04F03AFEEC
:1008CC005946041C281C04F035FE5146051C5046A4
:1008DC0004F047FE011C301C04F02CFE5146061C93
:1008EC00584604F03EFE011C381C04F023FE4A4618
:1008FC00071C032A00D149E142460020243210563D
:10090C0004F066FEA44904F02CFE42468246106AAE
:10091C0004F05EFE51468346201C04F00BFE594643
:10092C00041C281C04F006FE5146051C504604F01D
:10093C0018FE011C301C04F0FDFD5946061C5046E7
:10094C0004F00FFE011C381C04F0F4FD4A46071C91
:10095C00042A00D11AE1424600202C32105604F031
:10096C0037FE8D4904F0FDFD42468246906A04F044
:10097C002FFE51468346201C04F0DCFD5946041C16
:10098C00281C04F0D7FD5146051C504604F0E9FD27
:10099C00011C301C04F0CEFD5946061C504604F0D8
:1009AC00E0FD011C381C04F0C5FD4A46071C052A55
:1009BC0000D1EBE0424600203432105604F008FE21
:1009CC00754904F0CEFD42468246106B04F000FEE1
:1009DC0051468346201C04F0ADFD5946041C281CCE
:1009EC0004F0A8FD5146051C504604F0BAFD011C4C
:1009FC00301C04F09FFD5946061C504604F0B1FD16
:100A0C00011C381C04F096FD4A46071C062A00D12E
:100A1C00BCE0424600203C32105604F0D9FD5E4941
:100A2C0004F09FFD42468246906B04F0D1FD514686
:100A3C008346201C04F07EFD5946041C281C04F03F
:100A4C0079FD5146051C504604F08BFD011C301CF1
:100A5C0004F070FD5946061C504604F082FD011C42
:100A6C00381C04F067FD4A46071C072A00D18DE0AC
:100A7C00424600204432105604F0AAFD464904F0C8
:100A8C0070FD42468246106C04F0A2FD514683462E
:100A9C00201C04F04FFD5946041C281C04F04AFD90
:100AAC005146051C504604F05CFD011C301C04F042
:100ABC0041FD5946061C504604F053FD011C381CE0
:100ACC0004F038FD4A46071C082A5FD04246002035
:100ADC004C32105604F07CFD2F4904F042FD424686
:100AEC008246906C04F074FD51468046201C04F044
:100AFC0021FD4146041C281C04F01CFD5146051C1C
:100B0C00504604F02EFD011C301C04F013FD414630
:100B1C00061C504604F025FD011C381C04F00AFD8F
:100B2C004A46071C092A31D00298019A84469046FD
:100B3C00039B63441B01984442465423D05604F053
:100B4C0047FD154904F00DFD43468246186D04F02F
:100B5C003FFD51468046201C04F0ECFC4146041C31
:100B6C00281C04F0E7FC5146051C504604F0F9FC27
:100B7C00011C301C04F0DEFC4146061C504604F0FF
:100B8C00F0FC011C381C04F0D5FC071C211C201C9B
:100B9C0004F0E7FC804601E0CDCCCC3D484604F0A7
:100BAC0017FD311C814604F0DCFC414604F0BFFC0F
:100BBC000021061C04F004FD002842D1391C4846D3
:100BCC0004F0CFFC211C071C281C04F0CAFC011CDF
:100BDC00381C04F0ACFC311C04F0AFFC1E49071CA3
:100BEC0004F0BFFCFC21890504F0A4FC04F012FD08
:100BFC008046029B391C1E01019B201C9C466644AE
:100C0C003300A8331F6004F0ACFC011C281C04F05A
:100C1C008EFC494604F091FC3300AC33424618601C
:100C2C00FC21B0238905F25004F084FC04F0F2FCA2
:100C3C00B423F05005B0F0BCBB46B246A946A04662
:100C4C00F0BD002300279846D3E7002398461F1CCD
:100C5C001E1C1D1C1C1CA1E7ABAAAA3FF0B5DE464E
:100C6C0057464E4645460322E0B5002414268346DB
:100C7C0002719246E932914602737C4F7C4A7D4D5B
:100C8C009FB08260047500210761067785619046EC
:100C9C000590FFF793FD5A46534649465371593315
:100CAC00D154434693656423D4540833100017661B
:100CBC00EB39D6549566FFF781FD02AA02AB944638
:100CCC005C751523634419000020FFF797FC02AAFA
:100CDC00944615236344040019000120FFF78EFC91
:100CEC00654B240204439C4200D0B6E002AA944611
:100CFC00624A16249246FF2208AB99460025934679
:100D0C00002798465E4E64441FE002F0B9FF802332
:100D1C00801979411B06994202D30120594940425E
:100D2C00002302900391009322005021504601337E
:100D3C0008F0ECFA002826DD4A46237801351370BA
:100D4C0001239C46E144582D29D05B46237002AB0D
:100D5C00DD7502F095FF8023801979411B069942BD
:100D6C0002D30120474940420290039102A900237B
:100D7C008C4617220093502150460133624408F0F0
:100D8C00A1FA0028C1DC012302AA537500234A46AC
:100D9C00137001239C460135E144582DD5D108AC84
:100DAC00434639493948563428E049008AB209B2D9
:100DBC0000292FDB51008AB209B2002930DB520026
:100DCC0091B212B2002A31DB49008AB209B2002971
:100DDC0032DB520091B212B2002A33DB49008AB2E4
:100DEC0009B2002934DB520091B212B24900002A38
:100DFC0000DA4140013389B29C4249D01A78120280
:100E0C0051400AB2002AD0DA4A00424011B292B2E2
:100E1C000029CFDA5200424011B292B20029CEDA48
:100E2C00510041400AB289B2002ACDDA4A00424050
:100E3C0011B292B20029CCDA510041400AB289B207
:100E4C00002ACBDA4A00424011B292B20029CADA27
:100E5C00510041400AB289B2C8E701201FB0F0BC72
:100E6C00BB46B246A946A046F0BDC04650FC0300A6
:100E7C00344E050040A90200D10700006073012028
:100E8C0010270000FFFFFF7FFFFF00002110000074
:100E9C001820562302AA1218D35A5BBA9BB28B4263
:100EAC00DBD1059B00271D0004339846242399466B
:100EBC0009AC083511AE42462378D355002B00D12E
:100ECC009AE0A278E178120609040A4361790A4390
:100EDC00217909020A4361782A602971012B00D11A
:100EEC008AE0227AE179120409060A43A17A0A43BC
:100EFC00617A09020A43A179AA602973022B7BD07B
:100F0C00627B217B120409060A43E17B0A43A17B25
:100F1C0009020A43E17A2A612975032B6CD0627CA1
:100F2C00A17C120609040A43217D0A43E17C0902D3
:100F3C000A43217CAA612977042B5DD04846A27D07
:100F4C00E17D120609040A43617E0A43217E0902EF
:100F5C000A43617D29542A62052B4DD0E27E217F04
:100F6C00120609040A43A17FA07E0A43617F09028D
:100F7C000A432C216854AA62062B3DD03278717832
:100F8C00120609040A43F178E07F0A43B17809029A
:100F9C000A43342168542A63072B2DD07279B17916
:100FAC00120609040A43317A30790A43F1790902AD
:100FBC000A433C216854AA63082B1DD0B27AF17AFB
:100FCC00120609040A43717B707A0A43317B0902C9
:100FDC000A43442168542A64092B0DD0F37B327CDC
:100FEC001B0612041343B27CB17B1343727C1202B6
:100FFC0013434C22A954AB6439000598FFF7DEFB70
:10100C00293450352936002F01D1012753E7002010
:10101C0024E7C046F8B5DE464E4645465746E0B591
:10102C000700EC4B102203600021D83004F0D4FBF5
:10103C000023E8223800BB520232BB520021E23AB4
:10104C00EC3004F0C9FB8023F4221B01BB520232AA
:10105C000024BB523800F8230021FC54DE3AFC304B
:10106C0004F0BAFB3800153006220021FF3004F0E2
:10107C00B3FBA5235B00FC541E230822FF33FC5456
:10108C00D54B00251A60E022D44BD2011B680126F7
:10109C001340D34A13608D235B00FC54063BFC5475
:1010AC001623FF33FC540133FC541823FF33FC5438
:1010BC000133FC541A23FF33FC54CA4CA31D99462C
:1010CC00C94B9846237804219A46180003F01CF962
:1010DC0053460421581C03F017F9534652465B083B
:1010EC001F2A00D9C9E107221A4093009B18BF4957
:1010FC00BF4A9B009A18591815600D60BD495918C4
:10110C000D60BD498C464146634419601023536001
:10111C001660227801321F2A00DDAAE11207520F55
:10112C0093009B18B149B24A9B009A185918156044
:10113C000D60B04959180D60AF498C464146634467
:10114C00196010235360166023781F2B00D975E1AA
:10115C0007225908114088004018A64993468C462E
:10116C003100A64A19404942800011409E4A8444ED
:10117C0092466246126851441140A14A944660441A
:10118C000160591C1F2B00D186E15A464B081A40AE
:10119C0093009B18974A9B009A1812680E4200D035
:1011AC0014E11204120C964902348C4663441A6002
:1011BC00A14587D108F0CEF81F211B2003F0A4F81D
:1011CC00002200211B2003F0B9F800211B2003F0A2
:1011DC00C9F81F211A2003F097F8002200211A20C9
:1011EC0003F0ACF800211A2003F0BCF81F211C20DE
:1011FC0003F08AF8002200211C2003F09FF8002144
:10120C001C2003F0AFF81F211D2003F07DF80022F5
:10121C0000211D2003F092F800211D2003F0A2F8FC
:10122C00182003F0B3F8192003F0B0F8D024802371
:10123C0024065B04636280239B046362082003F032
:10124C00A5F880235B0063620920636103F09EF8BC
:10125C0080239B0063620220636103F097F80423F0
:10126C000022A3620121022003F068F8032003F09E
:10127C008DF808230226634DA3620022012103206E
:10128C0003F05CF82800604908F080F85F4A6B684E
:10129C0016600F22296833405140C0320A405C4925
:1012AC0012200A605B4A0121136003F02DF8012122
:1012BC00132003F029F80121152003F025F804214F
:1012CC00172003F021F80421162003F01DF8102537
:1012DC0000220120464B5049DA635A649A64D9645F
:1012EC001D64D863DA635A649A64D9641D64D86344
:1012FC0080234A49DB040A68804653401B0C484A49
:10130C001B04136080230968DB004B401B041B0C7F
:10131C001360063003F03AF8062003F037F8052086
:10132C0003F034F88023A362403BA362203BA3620A
:10133C00142003F02BF800220021142002F0FEFFF1
:10134C00042003F023F865623649A561364807F09E
:10135C008FFF0321102002F0D7FF0321112002F090
:10136C00D3FF002003F012F843460120636203F020
:10137C000DF866623800FFF7C1F9D023F854380035
:10138C00FFF76CFC434258418F235B00F854563BEB
:10139C009846B844404601F077FF4346234C244D11
:1013AC00123618685968234A234B04F0A3F8013EFF
:1013BC0000196941002EF6D1434618605960380077
:1013CC00F0BCBB46B246A946A046F8BD120C1204AE
:1013DC00E9E6C0469050012000F0044000C00440F3
:1013EC0000D0044094500120FFFF0000080005408D
:1013FC00000005400C000540100005400100FEFFF8
:10140C000C10054000C00340286BEE0004F00340B4
:10141C0000D0034004E00340FF07000048000540F3
:10142C0048100540A0860100607301204F8167F7CA
:10143C007E7B05142D7F954C2DF451585A07920F35
:10144C00083291008A189000144A944684441E4233
:10145C0017D0591C63461B680A001B0C1B049A46C8
:10146C000F4B9C465346604403605207920F083260
:10147C008EE65207920F083252E603221A400832C7
:10148C0033E662461168064A09049446090C604426
:10149C000160591C0A00E8E72022E6E70C00054031
:1014AC000C100540B02312018218D0583C39484327
:1014BC000433D3580011C018C343DB1718408023E2
:1014CC001B03984200DB01487047C046FFFF070032
:1014DC00F0B5C64600B505F027FF0A2002F00CFB5C
:1014EC000021002007F0CCF9264808F051F8D02153
:1014FC00012209060B6D1A42FCD107F0F9FF224BB1
:10150C00FA2498461860002502F0BAFBA400802348
:10151C0024184D411B069D4202D301241B4D6442ED
:10152C000A2002F0E9FA43461E68186800F04EFAE9
:10153C000100300000F060FF03E04346186800F043
:10154C00FDFD4346186800F041FA0028F5D1FA2653
:10155C000027B6004346186800F0EEFF012000217A
:10156C00404206F0F7F82000290002F045FAA419D1
:10157C007D4180231B06AB42ECD80124034D644211
:10158C00E8E7C0461D02002044940120FFFFFF7FC6
:10159C00F8B5DE4657464E4645460400E0B5FFF723
:1015AC0039FD704B00252360A6235B00E5501C33EE
:1015BC00E550E71878337B6099466B4BFD60BB6058
:1015CC0000239846BE235B003D61E5526D3BFF3B1B
:1015DC003B629A462200654B8D321E00BD61FD6157
:1015EC00FF329C460BCE0BC2100032685346026091
:1015FC00B288042182802200A132FF32FB86117056
:10160C00D4225200FD63A55022004146AD32FF3278
:10161C001170F0221206BA64554A3021FA64DC22A9
:10162C005200A618A1500C327560B560A5504A4600
:10163C003261813AFF3A7261B2618532FF32F561F3
:10164C0035627562B562A55022004146E932FF321F
:10165C001170FA22474952007563B563A1502100FD
:10166C006246F931FF31143209CA09C1424A634654
:10167C00116880229200A15040490432A1500432DA
:10168C00A2181C33B34643CB43C21B8808211380DA
:10169C00C8239A46A24453461A6886239B00E01836
:1016AC0001F0B0FC53461A68AA239B000821520093
:1016BC00E01801F0A7FC53461B6808215A00D21809
:1016CC00CE239B00E01801F09DFC53461A68F223D0
:1016DC009B0008219200E01801F094FC53461B6813
:1016EC0008219A00D2188B23DB00E01801F08AFC49
:1016FC0053461B6808215A00D2189D23DB00520068
:10170C00E01801F07FFCAF231D4ADB00E252962269
:10171C001C4BD200E2524A461B4B0020E5520433CC
:10172C00E5501A4B0021E2504246194BE2548022FC
:10173C00184B5200E2520633E31818605960B42378
:10174C004246DB00E552144B5846E25421003A0065
:10175C0001F0C6FA2000F0BCBB46B246A946A04632
:10176C00F8BDC046C050012080320200C450012098
:10177C0080BB00000009000830510120450605001F
:10178C00FF0F00007A0500007C05000084050000B6
:10179C009105000092050000A20700001C2370B503
:1017AC0004009622FF33C05C253BE35A01211BB297
:1017BC005200934203DC104A0021934218DAA6230C
:1017CC005B00E358CA00521A9B185D7A1E7ACE232E
:1017DC009B002A00E0183021330001F0C1FCF223F9
:1017EC009B002A00E0183021330001F0B9FC70BDD9
:1017FC00023841424141E2E7D4FEFFFF1C2396220E
:10180C0010B5FF33C45C253BC35A01211BB25200F7
:10181C00934203DC1D4A002193420FDAA6230400F5
:10182C005B00C358CA00521A9B189B7AB934FF3418
:10183C00062B07D8164A9B00D3589F46023C6142A0
:10184C006141EBE70121200001F094FB0021200015
:10185C0001F0C0FB10BD2000322101F08BFB1E21DA
:10186C00200001F0B7FBF5E71921ECE73221EAE79C
:10187C004B21E8E76321E6E720000F2101F07AFB1A
:10188C000C21200001F0A6FBE4E7C046D4FEFFFFCC
:10189C009C500120014BC1547047C046910500007B
:1018AC00014BC1547047C04692050000A6235B0053
:1018BC00C2581C2370B59625FF33C65C253BC35A12
:1018CC0004001BB201206D00AB4203DC144D002060
:1018DC00AB4221DAC3001B1AD3181B7B002B12D08E
:1018EC00002909D1D023802200201B0652005A6106
:1018FC0001220C4BE25470BDCE239B00E01801F08A
:10190C0011FC012101400029ECD0D02380221B06C0
:10191C00520008009A61EBE7023E70427041D9E731
:10192C00D4FEFFFFA1050000A6235B00C2581C23B8
:10193C0070B59625FF33C65C253BC35A04001BB219
:10194C0001206D00AB4203DC144D0020AB4221DAC8
:10195C00C3001B1AD3185B7B002B12D0002909D1B2
:10196C00D023802200201B0692005A6101220C4BCE
:10197C00E25470BDF2239B00E01801F0D3FB01216F
:10198C0001400029ECD0D02380221B0692000800D5
:10199C009A61EBE7023E70427041D9E7D4FEFFFF3B
:1019AC00A10500008C235B00C05CC0B27047C04630
:1019BC001A23FF33C05CC0B27047C046DC23C0584A
:1019CC0080B27047E023C05880B270471C23FF33AD
:1019DC00C05C43425841C0B27047C0461C2310B58E
:1019EC009624FF33C15C253BC35A01221BB2640011
:1019FC00A34203DC0B4C0022A34207DAB423DB0026
:101A0C00C15C91420BD0C254012010BD02394B4233
:101A1C005941B423DB00CAB2C15C9142F3D100201E
:101A2C00F3E7C046D4FEFFFF10B56930FF3001F07C
:101A3C0085F810BD1C2370B504009622FF33C05CE2
:101A4C00253BE35A01211BB25200934203DC144A9A
:101A5C000021934220DAA6235B00E358CA00521AF5
:101A6C009B18DD7ACE239B00E01801F05FFBAA23C4
:101A7C00013D45199B002900E01801F055FBF223AC
:101A8C009B002900E01801F04FFB9D23DB0029008F
:101A9C00E01801F049FB70BD023841424141DAE7E0
:101AAC00D4FEFFFF8623F0B5C6469B009846AF25B3
:101ABC00D82600B5ED00804404008159425B4046B5
:101ACC0001F0EEFACE239B00E7183800A159625BB7
:101ADC0001F0E6FA8B23DB00A159625BE01801F000
:101AEC00DFFA404601F01EFBB4239B009C46604489
:101AFC00400020184288FF3BFF3BE252380001F0C7
:101B0C001FFB064B0022E15C4118C9B22000FFF715
:101B1C00C9FC034B186080BCB846F0BDA20700009E
:101B2C0094720120AA23F0B5C6469B009846AF25B7
:101B3C00D82600B5ED00804404008159425B404634
:101B4C0001F0AEFAF2239B00E7183800A159625B52
:101B5C0001F0A6FA9D23DB00A159625BE01801F0AD
:101B6C009FFA404601F0DEFAB4239B009C46604489
:101B7C00400020184288FD3BFF3BE252380001F048
:101B8C00DFFA064B0122E15C4118C9B22000FFF7D5
:101B9C0089FC034B586080BCB846F0BDA20700001E
:101BAC009472012030B591B0050040220C006846BB
:101BBC004F4903F017FE00224E4BEA5402F060F836
:101BCC00B323DB009C46654428606960022C66D018
:101BDC00032C00D178E0042C00D177E0052C00D147
:101BEC0076E0062C00D175E0082C00D174E00C2CAA
:101BFC0000D173E0102C00D172E03F4B3F4A1B68C0
:101C0C001B041B0C136000233B4A3C491268120C4A
:101C1C0012040A601A0720D4394A3A49126812048D
:101C2C00120C0A605A0721D4354A36491268120C34
:101C3C0012040A609A0722D4334A344912681204F7
:101C4C00120C0A60DB0723D52F4B304A1B68DB4391
:101C5C001B0C1B04136011B030BD294A29491268B2
:101C6C00D2431204120C0A605A07DDD5244A2549C6
:101C7C001268D243120C12040A609A07DCD5224A6D
:101C8C0022491268D2431204120C0A60DB07DBD41F
:101C9C001D4B1E4A1B681B0C1B041360DBE76B46B9
:101CAC001B799A061ED5144A14491268D2431204A1
:101CBC00120C0A60DA06A7D50F4A10491268D243F3
:101CCC00120C12040A60A5E702ABE9E704ABE7E7E4
:101CDC0006ABE5E708ABE3E70AABE1E70CABDFE704
:101CEC000EABDDE7044A0549126892B20A60E1E7DF
:101CFC00F050012093050000700005407010054065
:101D0C00840005408410054098000540981005405B
:101D1C001C2370B504009622FF33C05C253BE35AAC
:101D2C000D001BB201215200934203DC1E4A00211C
:101D3C00934234DAA6235B00E358CA00521A9B186C
:101D4C00DE7A86239B002900E01801F0EDF9AA2326
:101D5C00013EAE199B003100E01801F0E5F9CE23ED
:101D6C009B002900E01801F0DFF9F2239B00310001
:101D7C00E01801F0D9F98B23DB002900E01801F001
:101D8C00D3F99D23DB00E018310001F0CDF92900D7
:101D9C002000FFF707FF2000FFF730FD70BD023871
:101DAC0041424141C6E7C046D4FEFFFF70B5354BFA
:101DBC000400C35C012B11D0002B00D070BD01F0CE
:101DCC005FFFB323DB00E3181A685B68801A994144
:101DDC00002953D001222B4BE254EFE786239B00C2
:101DEC00C01801F09FF9000180B24043264E031247
:101DFC003268264D53401B041B0C2B60AA239B00FE
:101E0C00E01801F08FF9000180B240433268030200
:101E1C0053401B0C1B042B60CE239B00E01801F0DD
:101E2C0081F9000180B24043194E03123268194DFA
:101E3C0053401B041B0C2B60F2239B00E01801F099
:101E4C0071F9000180B240433268030253401B0C0D
:101E5C001B042B60104B1149E35C0A685B42534036
:101E6C001B040F4A1B0C13600E4B0968E35C5B42AE
:101E7C001B044B401B0C1B0413609FE70A4B98423E
:101E8C009CD9A7E793050000700005407010054031
:101E9C008400054084100540910500009800054021
:101EAC00981005409205000060E31600F0B5474617
:101EBC00CE4680B58BB069469E4AA62300929E4AB8
:101ECC005B008A8003228A710121C3587F201F780E
:101EDC005956FA0907405878002901DA02210A43B9
:101EEC007F2101408C46022159569878002901DA4D
:101EFC0004210A437F26064003201856D97800286F
:101F0C0001DA082002437F200140042018561C7976
:101F1C00002800DAD7E07F2004405879804605205D
:101F2C001856002800DAD1E040467F250540987904
:101F3C00814606201856002800DACAE06846C271AD
:101F4C0007726A466046D17250727F21484608403B
:101F5C009672147355739073D8791C7AC209014028
:101F6C0008201856002801DA022002437F20204066
:101F7C008446092018565C7A002800DAACE07F27EA
:101F8C0027400A241C57987A002C00DAAEE07F24F4
:101F9C0020400B241C57DD7A002C00DAB4E07F249F
:101FAC0025401C7BA0460C241C57002C00DAAEE00C
:101FBC0044467F2626405C7BA1460D241C57002CF2
:101FCC0000DAA7E06C4621746146E2736174A77471
:101FDC00E074257566757F214C466A460C409475F5
:101FEC009D7BD87BEA090D400F215956002900DA58
:101FFC0087E07F2101408C4610215956187C00291E
:10200C0000DA8AE011247F211C570140587C002CF7
:10201C0000DA8CE07F24204012241C579E7C002C7C
:10202C0001DA102422437F242640DC7CA0461324B2
:10203C001C57002C01DA2024224344467F272740DA
:10204C001C7DA14614241C57002C01DA4024224389
:10205C006C46E27525766A466446917654767F2105
:10206C004C460C40D076167757779477587D9C7DEC
:10207C00C209014016201856002801DA022002433A
:10208C007F202040DC7DDB7D5BB2002B01DA04235A
:10209C001A436B46DA776A462023D15401336946DA
:1020AC00D05422225E3323408B542323D532CA547E
:1020BC0000206A460021013306F08CF90BB0C0BC3D
:1020CC00B946B046F0BD1020024324E7202002435D
:1020DC002AE74020024331E77F2727400A240420C7
:1020EC001C570243987A002C00DB50E7082422434B
:1020FC007F2420400B241C57DD7A002C00DB4EE79C
:10210C0002E002210A4374E71024224347E720240B
:10211C0022434DE74024224354E7042111240A436F
:10212C007F211C570140587C002C00DB72E70824EF
:10213C0022436FE7F07D03020105000070B5224DCC
:10214C0006212878214C43005840C0B202F0B6FB5F
:10215C000122C9B2635C59081A401F2B1CD80723F3
:10216C000B409C00E4181A4BA400E618002A1DD161
:10217C0033688022DB4352011B041B0CB418236010
:10218C000021144801F0A4FC134B32681340236067
:10219C002B7801332B7070BD03230B4008339C004C
:1021AC00E4180B4BA400E618002AE1D00B4B0021DD
:1021BC009C4633686444DB431B0C1B0423600548BA
:1021CC0001F086FC064BE0E7C6B0012094500120DC
:1021DC000C000540204E0000FFFF00000C100540D5
:1021EC000000FFFFF0B5354B85B0009386239B00B4
:1021FC00C5180400280000F095FF6B46C009187143
:10220C00280000F08FFF7F256B4628405871AA23C9
:10221C009B00E618300000F085FF6B46C0099871F2
:10222C00300000F07FFF6B462840D871CE239B0016
:10223C00E618300000F076FF6B46C00918723000CB
:10224C0000F070FF6B4628405872F2239B00E71891
:10225C00380000F067FF6B46C0099872380000F038
:10226C0061FF6B460540DD72D8236A46E358962021
:10227C005B1113731C23FF33E15C253BE35A0122F2
:10228C001BB24000834203DC0D480022834210DA6B
:10229C006B4630005A7300F049FF6B466A469873E0
:1022AC00F7230021D3730020E73B06F093F805B029
:1022BC00F0BD02394B425941CAB2E9E7F07D031037
:1022CC00D4FEFFFF70B5040002292DD017D80029C9
:1022DC004FD0324B80269C460025644436032800A0
:1022EC00FF2102F0C3FA2E4B9C4680231B01604455
:1022FC009C46654420800234B542F0D170BD032960
:10230C0023D1264B80269C4600256444F6022800E7
:10231C00FF2102F0ABFA8023DB009C466544208051
:10232C000234B542F3D1E9E71C4B00259C461D4E07
:10233C0064442800FF2102F099FA1B4B20809C4634
:10234C0065440234B542F4D1D8E7144B00259C46C1
:10235C00164E64442800FF2102F088FA144B9C4668
:10236C00144B60449C46654420800234B542F1D144
:10237C00C4E70A4B00259C460C4E64442800FF2100
:10238C0002F074FA0A4B9C460A4B60449C46654426
:10239C0020800234B542F1D1B0E7C046A20500005E
:1023AC0000FCFFFF00FF0700FF07000000FF0F000D
:1023BC0000F8FFFFFF0F00001C239622FF3310B51F
:1023CC00C45C253BC35A01211BB25200934203DC6F
:1023DC00084A0021934209DAA6235B00C358CA00BD
:1023EC00521A9B18997BFFF76DFF10BD023C61429E
:1023FC006141F1E7D4FEFFFF8023F0B5C6469B0098
:10240C00C518040000B5280000F034FC280000F0CA
:10241C0065FCA6235B00E05082882000444B6930A9
:10242C00E252E15AFF3089B200F0C2FB1C23962223
:10243C00FF33E05C253BE35A01211BB2520093426F
:10244C0004DC3C4A0021934200DB6CE0A6235B00D9
:10245C00E358CA00521A9B185D7A1B7A2A009846D8
:10246C00CE239B00E71830214346380000F078FE5D
:10247C00F2239B00E6182A0043463021300000F07E
:10248C006FFE2000FFF7BAF91C239622FF33E05CA5
:10249C00253BE35A01211BB25200934203DC254A2F
:1024AC00002193423BDAA6235B00CA00E358521A80
:1024BC009B183800DD7A00F039FEAA23013D45193E
:1024CC009B00E018290000F02FFE2900300000F0DE
:1024DC002BFE9D23DB00E018290000F025FE1C23B9
:1024EC009622FF33E05C253BE35A01211BB25200DC
:1024FC00934203DC0F4A002193420CDAA6235B00C3
:10250C00E358CA00521A9B182000997BFFF7DAFE99
:10251C0080BCB846F0BD023841424141EEE702387A
:10252C0041424141BFE70238414241418EE7C0463A
:10253C007A050000D4FEFFFFF0B557464E464546DF
:10254C00DE46E0B5C14D07006B1E994689B00021EF
:10255C00002005F09BFE002800D1D8E080232A0043
:10256C000021002005F0A4FE0428F0D92B78F02BD4
:10257C00EDD14B461B5CF72BE9D16B787D2BE6D16B
:10258C00AB78032BE3D1EB78012B00D1C8E1032B03
:10259C00DDD1002314220021441F03A8029303F071
:1025AC001BF980214942002200238C46A846A848EA
:1025BC0001979C4200D8BAE15E1CB44200D8C2E13B
:1025CC000127C15C865D9D1C0F4202D067463E43CD
:1025DC00F6B2571CBA4602AFBE54AC4200D8B4E1B6
:1025EC005646182E76D0DE1CB346465D02250D42AB
:1025FC0002D065462E43F6B2951C0095554602AFA7
:10260C007E555C4500D88FE1951C182D62D01D1DA0
:10261C00AA465D46465D04250D4202D065462E4312
:10262C00F6B2D51CAB46971C02ADEE55544500D8FE
:10263C0080E15D46182D4DD05D1D0095082755464F
:10264C00455D0F4202D066463543EDB25E46171D1E
:10265C00BA4602AFBD555E1DB44200D878E155466E
:10266C00182D37D09D1DAB46855D10260E4202D02D
:10267C0066463543EDB2561D0096564602AFBD5523
:10268C005C4500D850E1551D182D23D0DD1DAA4600
:10269C0020265D46455D0E4202D066463543EDB2BE
:1026AC00961DB346571D02AEF555544500D841E171
:1026BC005D46182D0ED055460833455D490602D5AA
:1026CC0061460D43EDB25E4602A907328D55182ABC
:1026DC0000D06EE7A624019F640002A91822385985
:1026EC0003F080F85B4B4546FA5A3B599A8080239D
:1026FC009B00F81800F08CFA00213800FFF77CFEE4
:10270C000021002005F0C2FD002800D026E70400BF
:10271C0001F0B6FA0B0050490200785A002800D19B
:10272C00A2E0FA207D5A4001854200D39CE0494842
:10273C007E5A3D5AAE4200D196E0A6256D007E5AD7
:10274C007D59AE807D5AADB23D527C520C31791818
:10275C000A604B60B2230122DB00FA54FB5C3D00A3
:10276C00B935FF35280000F08DFB3800FFF71EFB54
:10277C008B23DB00F81800F0D5FC9D230400DB0054
:10278C00F81800F0CFFC21003C000200693428004E
:10279C0000F024FCFF343800FFF730F8200000F084
:1027AC00EBF9002805D08C235B00FB5C002B00D1DF
:1027BC00A6E01A23FF33FB5C002B00D18AE0182320
:1027CC00FF33FB5C0022002B33D0F023FB581BB2F1
:1027DC00002B2ED05B00172B00DCBCE05B2B00DC4D
:1027EC00BCE08E2B00DCBCE0BC2B00DCBCE0E62BA0
:1027FC0000DCBCE01932FF32934200DABAE030322E
:10280C00934200DAB9E03032934200DCB8E0343263
:10281C00934200DC91E03432934200DAB3E00F4A89
:10282C00934200DCB2E091210C2289008B4200DC47
:10283C0086E00B4B0B4CFA543B5D002B55D109B089
:10284C00F0BCBB46B246A946A046F0BD94A40120FC
:10285C0098A401207A0500007C05000012020000FB
:10286C00A2070000A10500004A49785A002809D0A7
:10287C00FA207C5A4001844222D2785A4649795A2D
:10288C0088421DD0B221C900795C002900D166E7CD
:10289C00B121C900791808684968121A8B411100D6
:1028AC00002B03D13D4B994200D858E780239B0065
:1028BC00F81800F0ADF9B2230022DB00FA544EE711
:1028CC00002034497852B221C900795C002900D12A
:1028DC0045E7DDE7200000F053F9002800D16EE752
:1028EC000021200000F044F969E7002005F0BEFC4F
:1028FC000028A4D03800FFF775FC00233B559EE759
:10290C002000002100F030F9A6235B00FB582000CA
:10291C009A88214BFA52F95A89B200F049F948E7E2
:10292C003800FFF7C3FA12E65B46009ACFE645463D
:10293C00019F0CE65A465346C9E60822D2B278E704
:10294C00013AD2B275E7330033E652462B00BEE6AD
:10295C005246009BBBE60022D2B26AE70122D2B2F9
:10296C0067E70222D2B264E70322D2B261E7042203
:10297C00D2B25EE70522D2B25BE70622D2B258E7AA
:10298C000722D2B255E70922D2B252E70A22D2B2BA
:10299C004FE7C0467C0500007A0500007F841E00CE
:1029AC0042181532FF32127803000020002A07D09B
:1029BC0002290CD005D800290DD0F622985A00B265
:1029CC0070470329FCD1F022985800B2F8E7EC22AA
:1029DC00985800B2F4E7F422985A00B2F0E7C046D7
:1029EC00F42370B51C4DC35A2A6804001BB2002A8C
:1029FC0001DD013A2A6019490878002804D11F2BFF
:102A0C0001DD002A05D070BD1F33FCDA00230B70EA
:102A1C00F9E701230B7086239B00E01800F088FB7C
:102A2C00AA239B00E01800F083FBCE239B00E01848
:102A3C0000F07EFBF2239B00E01800F079FB8B2367
:102A4C00DB00E01800F074FB9D23DB00E01800F0C5
:102A5C006FFB30232B60D6E714A50120C5B00120F5
:102A6C00C268036970B5D318934289414942017514
:102A7C00382115001E00C360415CC46B8D408E4034
:102A8C00B54201D90134C463C1690131C161016A24
:102A9C00A14206D940210024415C4475002906D18D
:102AAC0070BD00214024C163013101554175934231
:102ABC00F6D200234022C3638354F1E7007D7047B4
:102ACC00407D7047C0697047826910B50400002AC8
:102ADC0030D043688A1A934228D88368934225D30E
:102AEC008161002A28D000230020012101F024FF5D
:102AFC00020020614123E35C002B03D0E168A36C4E
:102B0C00994205D80121002321753F31E3606354BC
:102B1C00002A0DD000230021E06C02F0EBFC962281
:102B2C000023920002F0E6FC88B202E00023A361CD
:102B3C00002010BD8161FBE70269DBE71031490021
:102B4C0041188B880122036240234121C254415C0D
:102B5C0010B5002907D0C468816C8C4203D80021C1
:102B6C000275C160C15410BD4123C1547047C046A9
:102B7C004223C1547047C0464123C05C7047C046D5
:102B8C004223C05C7047C04643230122C2547047A5
:102B9C0044230122C2547047030043220021805C6D
:102BAC0099547047030044220021805C995470476B
:102BBC0010B5040000290ED0C26C93009B181801AC
:102BCC00C01AC00001F07AFE00230200012100208F
:102BDC0001F0B2FE206110BD006910B5002805D0CF
:102BEC00020000230020012101F0A6FE10BDC0460A
:102BFC000300006910B5002808D002001C6A0020F0
:102C0C000023012101F098FE0009604310BDC0466D
:102C1C00802270B50400134D13495201280002F0B4
:102C2C00E1FD1822290020000FF0B8FE002817D073
:102C3C000E4B802229001D001800520102F0D2FD1B
:102C4C0018222100280002F0CDFD802108484901FE
:102C5C0011F0D2FC802229000548520111F00CFD24
:102C6C0070BDC0464484012000F01F104894012020
:102C7C0000F01F0030B5040018220D0087B0134976
:102C8C0002F0B0FD124B22689A4201D1002D1AD0ED
:102C9C006B4600211122D81D02F09EFD0D4B02AA9D
:102CAC0023CB23C21B88694613806A46084B20003D
:102CBC000093094B938005239371162202F092FD29
:102CCC002000FFF7A5FF07B030BDC04600F01F1075
:102CDC00464E4F4334510120450600007047C04614
:102CEC00416082607047C04670B504008068FFF791
:102CFC00E5FE002800D08CE0A068FFF7E1FE00287C
:102D0C0000D07CE0A068FFF747FF002802D001222A
:102D1C00594B1A70A068FFF745FF002827D00123F4
:102D2C00564E574D33702B78002B28D0524E33789B
:102D3C00002B00D077E02E22A35C002B5AD0636AC4
:102D4C00013B6362002B55D1A35400216068FEF750
:102D5C00ADFD2C23E35C002B05D0E369013BE36163
:102D6C00002B00D181E02B78002B3FD121E0444D8A
:102D7C002B78002BDAD1414E3378002B19D001215E
:102D8C006068FEF7D1FD01006068FEF789FDA3695C
:102D9C002D22A36263696068236123620123A3541B
:102DAC000232A354FEF7BEFE002333702B78002BA7
:102DBC00C1D12F22A35C002B09D0A36A013BA362D3
:102DCC00002B04D100216068A354FEF7ADFD2D2229
:102DDC00A35C002B09D0236A013B2362002B04D196
:102DEC0000216068A354FEF75BFD2B780122534051
:102DFC002B7070BD2C23E35C002BAED1F5E7606823
:102E0C00FEF7D6FD002800D07CE701221B4B1A7080
:102E1C0078E76068FEF7C6FD002800D06CE7012259
:102E2C00154B1A7068E701216068FEF73FFD00281A
:102E3C000DD16068FEF736FE002333702B78002B23
:102E4C0099D02E22A35C002B00D078E7D2E7012189
:102E5C006068FEF71FFD63692C2263622361E361E6
:102E6C000123A3540232A354E3E72C22002160680F
:102E7C00A354FEF70FFD76E7C2B00120C3B00120CA
:102E8C00C4B00120F8B504004068FEF79BFD022198
:102E9C0005006068FFF784FD3D23E65C0700002E0B
:102EAC0048D03100324801F009FDED1901002DB276
:102EBC004008281801F002FD86422ED985B2C0B216
:102ECC0086422FD93C23E35CAB4231D16068FEF7DC
:102EDC0075FD3F23E65C0500002E3AD031002448F6
:102EEC0001F0ECFC01004008401901F0E7FC8642BF
:102EFC0011D93E26201840300578A35DAB4204D092
:102F0C0029006068FEF704FFA5556068FEF766FDB2
:102F1C00002820D1F8BD701EEBE7701E85B2C0B240
:102F2C008642CFD83C23013EE35CB5B2AB42CDD058
:102F3C00EDB200E0FF2529006068FEF775FD3C232B
:102F4C00E5546068FEF73AFD3F23E65C0500002E71
:102F5C00C4D10020CDE76068FEF720FC6068FEF766
:102F6C004DFC6068FEF766FD6068FFF725FAD1E757
:102F7C00FF0F000070B5466B04008E19642E00D94B
:102F8C006426A56B4D19642D00D96425A068FFF744
:102F9C0023FE32000023002102F0ACFAC8220023E9
:102FAC0001F0CAFC6061602800D260206061A068FA
:102FBC00FFF71EFE2A000023002102F09BFAC82214
:102FCC00002301F0B9FCA061602800D26020A06150
:102FDC0070BDC0463023C1547047C046302330B555
:102FEC00C55C803969430C00803A55434F33EA176E
:102FFC00C917194013405B190919C911DB11416339
:10300C00836330BD8C2310B50024C4520233C454E6
:10301C0041601449002A00D10A68134B5343134AE8
:10302C00944663440B605B080380114B3022836031
:10303C00104BC360104B0361104B4361104B836109
:10304C00104BC361104B0362104B4362104B8362F5
:10305C00104BC362104B0363104B43638823C25065
:10306C0010BDC0469C7201206D4EC6413930000027
:10307C00303132333435363738393A3B3C3D3E3FCC
:10308C00404142434445464748494A4B4C4D4E4FBC
:10309C00505152535455565758595A5B5C5D5E5FAC
:1030AC00F8B5561173000D000400D11A9A420AD0DB
:1030BC00194B1A481A685043194A944660441860D0
:1030CC00400801F0FBFB8E23E05C7118238800287C
:1030DC0001D18C22A352461C6268F6B2964218DAD1
:1030EC000230C0B21F00013A5B0017411BB2012233
:1030FC00A9420ADBBA4313439BB28E222380A0540D
:10310C00002E01D1023AA352F8BD3A4013439BB2B0
:10311C00F3E701200026E5E79C7201206D4EC641C5
:10312C0039300000007870474160704780887047E4
:10313C008C23C35A002203808E23C2547047C0468E
:10314C008823C258002A09D0037853431B129A4291
:10315C0002DDC018007A7047531EFAE70020FAE728
:10316C00F0B54546DE4657464E46E0B5904683B030
:10317C00062B36D81D4A9B009A5801921C4A9E5821
:10318C0088230022C2504346002B23DB8946002EA5
:10319C0020DD00239C4688339B460024019AA30023
:1031AC00D358CB187F2B08D85A465F4685586A1CD3
:1031BC004519C2512B727F2A0CDC0134B442EDD17B
:1031CC0001239A460B33D4449A46D144C44501DCBE
:1031DC004946E2E703B0F0BCBB46B246A946A0465E
:1031EC00F0BD044B0C260193CAE7C0466051012088
:1031FC00445101201052012000487047CC5201204C
:10320C00004870476452012070B5002822D0032872
:10321C0029D8164B8000C55828000FF0BBFFC0B250
:10322C00041C1F2814D8C026E4B2631CDBB25B005C
:10323C00B6001E43002808D000230D4AE95C013378
:10324C001180D9B202328C42F8D80A48068070BD7F
:10325C001F24E8E7C126054B02220548196802F035
:10326C00C1FAB600F1E70020F1E7C046A0720120D8
:10327C0082A8012080A8012010B5024800F004F8B3
:10328C0010BDC046B0B0012030B5002589B0040097
:10329C000922002101A8009502F09EFA09220021C2
:1032AC0005A8049502F098FA4B236A4668461370F9
:1032BC0004A90D2211F020FA1521082220006944DE
:1032CC0002F090FA09B030BD8023DB051868000FBE
:1032DC007047C0460FB400B5084883B004F006F838
:1032EC00049B002B07D005A91800019103F014FED4
:1032FC00034803F0FBFF012003F026FEE0520120FF
:10330C00B0590120EFF3108072B6034A1368002BFA
:10331C00FCD0BFF35F8F70472C0100D0BFF35F8FE1
:10332C000022024B1A6080F3108870472C0100D0E9
:10333C0070B5EFF3108C72B60D4D2B68002BFCD0D2
:10334C00BFF35F8F0724CB08C618C05C01230C4069
:10335C00A3401C000440034207D118433070BFF354
:10336C005F8F2C608CF3108870BD1000FFF7B2FFDC
:10337C002C0100D0F8B54746CE46884680B5EFF311
:10338C00108C72B6214D2C68002CFCD0BFF35F8FD3
:10339C009A422CD8D4080727055D0619012417403A
:1033AC00BC402C421FD007210127894609E0D408D4
:1033BC00055D06194C4639001440A1400C00294209
:1033CC0011D001329342F2D201204042BFF35F8F01
:1033DC0000220E4B1A608CF3108800280FDBC0BC47
:1033EC00B946B046F8BD254310003570EEE7BFF383
:1033FC005F8F00232B608CF31088012040424346E2
:10340C00002BECD00898FFF765FFC0462C0100D0CC
:10341C00044A1078431CDBB2172B00D9102313700D
:10342C007047C046B072012010B5064B064C82B0F6
:10343C000100009318221F232000FFF79BFF02B00E
:10344C0010BDC046F052012030AC01200021044BCD
:10345C00044ABFF35F8F02C39342FAD17047C04650
:10346C00000100D0800100D0142310B50100188891
:10347C0004331B88984710BD162310B5010018881B
:10348C0002331B88984710BDF8B54746CE4680B529
:10349C000F1E19D01423994604330400002501266D
:1034AC0098464B461888434621681B88984701C4A8
:1034BC00431E9841013540420640AF42F1D13000E5
:1034CC00C0BCB946B046F8BD0126F8E70A4B1968EE
:1034DC00EFF3108072B60A68002AFCD0BFF35F8F3E
:1034EC001B68BFF35F8F00221A6080F3108840BF07
:1034FC00002000217047C046BCB00120F0B5DE466C
:10350C0057464E464546E0B585B0EFF3058203239A
:10351C001340B54A9900575801229A408846934661
:10352C00B24B1A60B24B02935B46B248436308231A
:10353C00FE5E002E35DABB881BB2002B00DBA8E048
:10354C00BB79002B00D0E9E00823F85E00281EDBD5
:10355C0043007A691B18DB00D3189D68DC686B1C70
:10356C0000D108E1A34801004144826A0B69AE1AFC
:10357C009B1A9E4213D35A46036A1A420FD09D4897
:10358C0000F076FB8C4202DCCED18542CCD940BF18
:10359C0005B0F0BCBB46B246A946A046F0BD0D61D5
:1035AC00EDE77A69730091469B19DB0099444B4611
:1035BC009C68DD6800F05CFB8D42BCDC00D1FCE05B
:1035CC00002D00DAE1E04A464B4652691B699246EF
:1035DC00029A934200D1D2E04A460821785E528882
:1035EC000004514610439847009001910099019AAC
:1035FC000B001000134300D1C7E013000A00002891
:10360C0000DBDEE020002900801A99414B469860CF
:10361C00D96000229A5E002A00DA8CE753009C18CD
:10362C007D69E4002C190093A368E4689A468C42E7
:10363C0000DD80E702D1834200D97CE708239C4659
:10364C00BC443A8103976746009BB4463E000EE0AB
:10365C008C4200D1C3E01E000023F25E002A0BDB7B
:10366C0053009C18E4002C19A768E468BA469B1810
:10367C00DB00EB188C42EBDD330066469C464B4678
:10368C001A806346039F1E80BB881BB2002B00DA96
:10369C0056E73A69EFF3108172B61368002BFCD031
:1036AC00BFF35F8F0123BE885B42BB8036B23B69A0
:1036BC00BFF35F8F00221A6081F31088002E00DAAE
:1036CC003EE73B0008333A0099467D6973009B192D
:1036DC00DB00EB189968DC688C460820115E4846C4
:1036EC00002910DB009306E0A34240D00023F95ED2
:1036FC003800002906DB4F007F18FF00EF19FB682C
:10370C00A342F1DD009B068000201E5E1980002E76
:10371C00DCDA1700BB79002B00D115E70023BB7155
:10372C003D000823F95E08354B1C00D12FE77C695E
:10373C000800A44603E035004B1C00D106E74B0003
:10374C005B180A006146DB00CE18C95E73881BB299
:10375C00002BF0DA01235B42DC17B360F460824289
:10376C00EAD029803B89100033803A81E4E7BB68BA
:10377C006345BBD9C6E7631C00D0F3E6FFE65346AE
:10378C0050461B699847002823D14B461B883A6941
:10379C003B81EFF3108372B611680029FCD0BFF3A4
:1037AC005F8F49467A880A803A697E80BFF35F8FC3
:1037BC000021116083F31088BDE6844200D8FFE637
:1037CC00B9E60C4800F054FA009B019CC01861410A
:1037DC001CE753461A685B680092019306E7824522
:1037EC0000D838E748E7C046A0B001203C7005403F
:1037FC007D3000200040054070B52E4C2569002D11
:10380C0004D00A212C4800F02BFD70BD2B4E032157
:10381C00300000F023FAE660FFF7FAFD284B032294
:10382C009C46D02322701B061B6801216370254B1C
:10383C006044A3600F2380002061022063806369D1
:10384C004942A18019800231198647311D83585293
:10385C0018315A5275325C399952183201319952D9
:10386C0018320131995218320131995208351832F7
:10387C009D52023118329952183201319952183234
:10388C000131995218320131995218320131995241
:10389C001832013199520C4B0C49DC600130356205
:1038AC0000F06CFA0121032000F04AFA084B1D606D
:1038BC00A7E7C046B4720120BCB00120004005400F
:1038CC0040000034FFFF1000A0B001207D3000202C
:1038DC003860054070B501000469EFF3108C72B6C6
:1038EC0020680028FCD0BFF35F8F02200D5E4C696E
:1038FC0068004019C0002418002D37DB2088488050
:10390C000869BFF35F8F002606608CF31088E360B4
:10391C0063880498013320615B0405985B0CA260FA
:10392C0060611A1C002B1FD093B2280462801843CC
:10393C000A69EFF3108C72B61368002BFCD0BFF33E
:10394C005F8F8B8823808D800B69BFF35F8F002284
:10395C001A608CF310880B7801329A40CB680849B6
:10396C008C4663441A6070BD0122DDE70B69BFF31E
:10397C005F8F00221A608CF3108801204042F2E71E
:10398C003C20000010B543890A1493421ADD530001
:10399C009B184269DB00D3180469EFF3108C72B6E4
:1039AC002268002AFCD0BFF35F8F5A88090494B2B6
:1039BC00090C8A4208D00369BFF35F8F00221A609A
:1039CC008CF31088002010BD8022120214435C80FE
:1039DC00012302698371BFF35F8F002111608CF3A7
:1039EC001088044902788C469340C26801206244D6
:1039FC001360E8E73C200000F0B504000D0006263B
:103A0C007642F717C64636196F4100B582B08F4221
:103A1C0014D811D000F034F932003B00121A8B414B
:103A2C00002B17DC002B47D02000290000F066F992
:103A3C0002B080BCB846F0BD8642EBD90022002310
:103A4C0016001F0000F01CF932003B00121A8B41CB
:103A5C00002BE7DD00F014F932003B00121A8B4109
:103A6C00002B0ADB00230193154B32000093154801
:103A7C003B00FFF72FFF0028D6DB00239C46B04607
:103A8C00114A124E736A9F4204D8B16A4145CBD297
:103A9C009F42C9D11168EFF3108072B60B68002BEE
:103AAC00FCD0BFF35F8F1368BFF35F8F6146196063
:103ABC0080F3108820BFE5E7002AB5D0CAE7C046DE
:103ACC004D300020B4720120BCB0012000400540F4
:103ADC0070B504000D0000F0D3F880230019694183
:103AEC001B06994202D3012002494042FFF784FF92
:103AFC0070BDC046FFFFFF7F70B5060000F0C0F838
:103B0C00FA2204000D00002330000021920001F085
:103B1C00F1FC8023001969411B06994202D3012054
:103B2C0002494042FFF768FF70BDC046FFFFFF7FB0
:103B3C00F0B5D6464F464646C0B504000D0082B0DF
:103B4C00EFF305878946002F0ED0344900204B6ACD
:103B5C00AB4203D38A6A0130A24226D302B0E0BC46
:103B6C00BA46B146A846F0BD2D4B9846DB689A463E
:103B7C00434650461E7800F07BF80B00514602007D
:103B8C000436B600715820008E1A2900801A99410B
:103B9C008F4211DC0ED020BF204A0020536A4B45C7
:103BAC00DCD3926A0130A242D8D25B1B5A1E9341DD
:103BBC00D8B2D3E78642EED900F062F822002B008F
:103BCC00121A8B41002B1ADB00230193154B220098
:103BDC00009340462B00FFF77DFE011E0FDD0F4BBF
:103BEC005A6A4A4517D39B6AA34212D34046FFF741
:103BFC00C9FE0A4A0020536A4B45AFD3D1E7074AA6
:103C0C000020536A4B45A9D3926A0120A242A5D247
:103C1C00CBE74A45EAD120BFE8E7C0460040054063
:103C2C00B47201204D300020084A4368516A10B527
:103C3C00046800208B4203D8926A0130A24200D360
:103C4C0010BD5B1A5A1E9341D8B2F9E700400540EB
:103C5C000260436000487047A937002010B5024A43
:103C6C000248FFF765FB10BD1853012034AC01204E
:103C7C000300416A0A00986A596A8A42FAD170476D
:103C8C00034B596A0A00986A596A9142FAD17047F3
:103C9C000040054070B504000D00174A536A190026
:103CAC00966A536A8B42FAD13000190024184D41A0
:103CBC00AB4216D813D0104B2A005B6A9D4203D935
:103CCC000D494B6A9342FCD3934207D10A4A02E056
:103CDC00516A994202D1916AA142F9D370BDA642B0
:103CEC00E9D9054B5B6A1C005A1CEFD00122012458
:103CFC006442E5175242E3E700400540064A536A26
:103D0C009942FCD807D1044B02E05A6A914202D185
:103D1C009A6A8242F9D3704700400540054B064A27
:103D2C001360064A136053609360D3601361536150
:103D3C00936170478080808000E400E004E400E040
:103D4C001F2318401E3B8340002905D0C021044A84
:103D5C004900535013607047802201498B50FAE799
:103D6C0000E100E001228240034B1B6813405A1E05
:103D7C009341D8B27047C04600E100E070B50D0029
:103D8C00EFF3108672B60F4A1368002BFCD0BFF30A
:103D9C005F8F0D4B10309B6884001B590B4A93426C
:103DAC0003D09D4201D000F06FFC074B9B681D5166
:103DBC00BFF35F8FBFF35F8F0022024B1A6086F355
:103DCC00108870BD240100D000ED00E0CD01001082
:103DDC00F0B54E464546DE465746E0B583B0060084
:103DEC0000919046EFF3108B72B6654A1368002B66
:103DFC00FCD0BFF35F8F0025624B5D579A46002DB8
:103E0C0000DA79E052466B005F4C5F19BF000193FA
:103E1C00E31999469B79103613705C4BB6009B687E
:103E2C0099590B1B2F2B33D9594B994200D07CE05D
:103E3C00019B02379C46574B6544AD006353564B70
:103E4C00E719043BDB1B554A1B055B0D6519134336
:103E5C006B80534B0121AB80FF23AB714346EB715D
:103E6C00009BAB604B460B431900484B9B68995128
:103E7C00BFF35F8FBFF35F8F0022414B1A608BF350
:103E8C00108803B0F0BCBB46B246A946A046F0BDB4
:103E9C0001200A008243D379434549D9BC464746A1
:103EAC00884607E05800C01880002018C179B94234
:103EBC0028D902000623D356002BF3DA9A46131D99
:103ECC009C464146B846374F484663460438C01AAC
:103EDC000005324B400D1843019B908095715A1987
:103EEC0053469200A418A37143462F4AE371009BDA
:103EFC002260A780A360B8E700F0C6FB00255346FC
:103F0C005D577FE79A464146131DB84667469C4667
:103F1C009088043740050015E7196044C01BE02762
:103F2C000005400D3F020743CEE700F0ADFB7FE7F5
:103F3C0013001E491B1B5B415943090D154BBD1C3E
:103F4C00E353154B6519043B5B1B1B05134D5B0DB4
:103F5C002B43AC464D466B8065460437131FE7195F
:103F6C00DB1B1B055B0D1D434B4699714146D971FB
:103F7C0000999D80996049460B4B0143136074E78F
:103F8C00240100D0CCB00120CC72012000ED00E067
:103F9C00CD01001000A1FFFFFC72012000E0FFFF2B
:103FAC0001BDFFFF01BD000001488047AAAA000027
:103FBC00F0B5DE4657464E464546E0B50C0083B09C
:103FCC00EFF3108872B6634A1368002BFCD0BFF372
:103FDC005F8F614B61499A68030010339F00D5597C
:103FEC0000938D4243D0A54254D05D4EAA1B2F2A7C
:103FFC003DD85C4B9C461B689A4601231A00994697
:10400C008240534613401F2201934B46024093407B
:10401C009A468022634650469850BFF35F8FEFF369
:10402C0005839B46002B37D0009B5B4501D000F0ED
:10403C002BFB2A004B469A439068844208D177E0C8
:10404C004B005B189B00F3189868844236D01A001A
:10405C00062151560029F3DA844255D0019B002BDE
:10406C0027D0C02251463F4B5200995019603A4B11
:10407C009B68DD51BFF35F8FBFF35F8F0022354B21
:10408C001A6088F3108803B0F0BCBB46B246A94650
:10409C00A046F0BD0D00EAE72A004B469A43906813
:1040AC008442D5D106201056130000280ADA0D00E0
:1040BC0032E0802351462B4AD150D8E706201856BF
:1040CC00002822DB42001118890074188946A16867
:1040DC009960E179D971062161569971002925DB26
:1040EC00A488F11A640524154C440919E024090527
:1040FC00490D24022143998013181B4A9B00117807
:10410C00F31899711070A9E713005946002914D1BE
:10411C00FF3191711549918013490A789A71144AAB
:10412C009B1B5B415A43120D0A7097E71149E2E75A
:10413C000620105613000028C4DA0F4A0F49D21A71
:10414C00083A5002400D014399800D4952080A4328
:10415C00DA8083E7240100D000ED00E0CD010010EF
:10416C00CC72012000E100E0CCB0012001BDFFFFCA
:10417C00AAAA000001BD00000673012000F0FFFF99
:10418C0000F8FFFF10B58308040003202040FF2433
:10419C00054AC0009446844081409B0063441A68E1
:1041AC00A2430A431A6010BD00E400E070B501247C
:1041BC000443EFF30581EFF3108C72B6214A1368B8
:1041CC00002BFCD0BFF35F8F1F4B05001F4AED1A6D
:1041DC006D416A43120D1E4D8900AE6852B276587D
:1041EC00A6421CD00621595691421CD01221595678
:1041FC00914222D01E215956914220D02A21595643
:10420C000324914210D0134B19781A708171BFF3AB
:10421C005F8F00220B4B1A608CF3108870BDAB685B
:10422C000D4C5C50EFE700246100091989005B1804
:10423C00FF21997109499980E5E70124F4E70224EB
:10424C00F2E7C046240100D0CC720120AAAA0000DB
:10425C0000ED00E0CCB00120CD01001001BDFFFF4E
:10426C00024B9C4661448900016070474000003459
:10427C00F0B5FF23C646144D144F2C00984600B5DC
:10428C00BD420DD31DE0FFF7C3F801002800FFF776
:10429C00E7FF4346B380BFF35F8FBC4211D22500CA
:1042AC00236826000834002BEDD1FFF7B1F801008C
:1042BC002800FFF7D5FF43463371BFF35F8FBC4235
:1042CC00EDD380BCB846F0BDB8780120C878012089
:1042DC0010B50400FFF79CF801002000FFF7C0FFA9
:1042EC00FF232371BFF35F8F10BDC04610B50400D0
:1042FC000120FFF799F8034BC3189B002360BFF311
:10430C005F8F10BD40000034094A83009A1810B525
:10431C0014684022544080322240064CC000A4460F
:10432C0063441A60044B9C466044416010BDC04617
:10433C0004C0014004D0014000400140074B800004
:10434C00C3181B68C90092000A435A400C2313403F
:10435C00034A9446604403607047C04604C0014061
:10436C0004D001408000002905D0064B9C46402318
:10437C00604403607047044B9C46402360440360D8
:10438C00F8E7C04604E0014004F001400123D022CC
:10439C008340120693629361094A83009A1811684C
:1043AC004022514080320A400649C0008C4663448A
:1043BC001A60054B9C460523604443607047C04619
:1043CC0004C0014004D0014000400140F8B5DE4675
:1043DC004E4657464546E0B58B4605000A991800EF
:1043EC00160000F06BFA0A9B6C001F02314B64192B
:1043FC009C46A4006444636881469F4200D9676070
:10440C002B1FDBB29846C02342469B01E318012ABE
:10441C002DD9802212011A60274BAD0059599A46AA
:10442C0000291BD17301E026226853401E408023D3
:10443C0042465B01E3181E60012A2DD9802380229D
:10444C009B01E31812011A6053464A4667605A51A1
:10445C00F0BCBB46B246A946A046F8BD586900F070
:10446C002DFA013043001B18033BFDD2DAE75A4604
:10447C00012ACED102321A60023AA3681A42FCD049
:10448C007301E0262268AD0053401E4080230A4A87
:10449C005B019246E3181E605A4621685140032284
:1044AC000A401A6001225B469A40A3681A42FCD06B
:1044BC00C4E7C0460080004038AC0120F0B5464649
:1044CC004F46D646C0B51F00334B44009C462418BB
:1044DC00A4006444636888461600FF2B02D880232E
:1044EC005B006360031FDBB29A46C02352469B01FC
:1044FC00E318012A2DD9802212011A60274B85005E
:10450C005959994600291BD17301E0262268534062
:10451C001E40802352465B01E3181E60012A2DD9F0
:10452C00802380229B01E31812011A6080235B0018
:10453C0063604B465F51E0BCBA46B146A846F0BD3D
:10454C00586900F0BBF9013043001B18033BFDD246
:10455C00DAE74246012ACED102321A60023AA36847
:10456C001A42FCD07301E0262268850053401E409D
:10457C0080230A4A5B019146E3181E60424621687B
:10458C00514003220A401A60012342469340A2681C
:10459C001342FCD0C4E7C0460080004038AC012078
:1045AC00014B8000C058704738AC0120F8B50400AE
:1045BC0020481D0017000E0000F080F901003800A3
:1045CC0000F07CF9069B29041B0319432368002B7C
:1045DC001EDB194B194DE21853425A4180235B01E3
:1045EC009C461203164B62441A60164B1A60170055
:1045FC002B689F43FBD1144B2660E2182123A0604B
:10460C0013602368002BFCDA0823E1601360F8BD0B
:10461C003F2322681340B342DBD1A3681B051B0D5B
:10462C008342D6D1EE22E368D20213408B42D0D122
:10463C00EDE7C046001BB7000040FDBF08C00040BE
:10464C0000E0004000F00040043000008023024AEB
:10465C009B000B43D362704700800540AA23064A97
:10466C001B0113602133FF33D3600449044B1960E1
:10467C005368002BFCDA70470040024000B0FA008F
:10468C00006002407047C04610B50148FEF722FE9C
:10469C003C53012070B5074D074EB54209D200249A
:1046AC00013E761BB60808CD984723000134B3426F
:1046BC00F9D170BDC87801200479012070B5074D7F
:1046CC00074EB54209D20024013E761BB60808CD30
:1046DC00984723000134B342F9D170BDFC78012016
:1046EC0004790120054B064A06491A60064A074B15
:1046FC001A6010000B689843FBD1704700E0004033
:10470C00BFCDFBFE08C00040FE7F3C0000F0004027
:10471C00044BDB6C002B03D18022034BD2021A60BA
:10472C007047C046000011504C201150044A054BF4
:10473C001A60054A1368DB018033FBD17047C04611
:10474C00FFFFFF0100F0004008C000404022034B77
:10475C009A675A671A67DA667047C04600F00140DC
:10476C0010B5FEF773FE10BD70B5044D044CA9686E
:10477C00C022200001F036F8AC6070BD00ED00E006
:10478C0000000020002310B5294C82B0A367FFF76E
:10479C0065FF0122274B1A60636C012BFCD10322AD
:1047AC00254B1A60224A936B012BFCD101330093E9
:1047BC000121224A22480433FFF7F8FE0523012188
:1047CC000093204A2048FFF7F1FE0022022104202A
:1047DC001E4BFFF773FE0022012105201C4BFFF737
:1047EC006DFE0022002107201A4BFFF767FE002206
:1047FC0000210820174BFFF761FE8023DB0000939C
:10480C00002200210920134BFFF7E0FD0022104B82
:10481C0000210620FFF752FE0420FFF7C1FE0E49CF
:10482C0000F04CF801000020FFF710FF02B010BDA3
:10483C00008000403CB0004030B00040002F685970
:10484C0000800240008C864700C00240001BB7006D
:10485C0040597307006CDC0240420F0001480421F0
:10486C00014B18472073012009300020124A936F26
:10487C009B0815D29066D166002905D0FFE7FFE7AB
:10488C00FFE7516F106F704704B580210906C217FE
:10489C005140002800D0C8430CF03EFB002104BD61
:1048AC00F0B5146E556E576F166FFFF7E3FF146675
:1048BC00556657671667F0BD000000D0114A936F1C
:1048CC009B0813D210665166002905D0FFE7FFE75D
:1048DC00FFE7516F106F704704B5002801D000201E
:1048EC00C0430CF019FB002104BDC046F0B5146E9A
:1048FC00556E576F166FFFF7E5FF146655665767D1
:10490C001667F0BD000000D094464A4A926F920898
:10491C00624601D228E0C046F0B5464E346E756E44
:10492C00776F366F00F020F89446424A146655664D
:10493C00576716676246F0BD94463E4A926F9208DE
:10494C00624601D254E0C046F0B53A4E346E756EF4
:10495C00776F366F00F04CF89446364A14665566FD
:10496C00576716676246F0BD002B24DB11D0002977
:10497C003EDA00B5C943404200D1013100F038F8AD
:10498C00C943404200D10131DB43524200D10133D3
:10499C0000BD002AEBD1002801D1002905D0002050
:1049AC00C90FC90701D1C043410800B50CF0B4FAD6
:1049BC000022002300BD00B500290ADBDB43524274
:1049CC0000D1013300F014F8C943404200D1013149
:1049DC0000BDC943404200D10131DB43524200D1FA
:1049EC00013300F005F8DB43524200D1013300BD26
:1049FC00002923D1002B18D1002A0CD0BC460D4F16
:104A0C0038667A6600210023FFE7FFE7FFE77A6F3D
:104A1C00386F67467047002801D00748010000B581
:104A2C000CF07AFA0022002300BD02000B000020DB
:104A3C0000217047000000D0FFFFFFFF002B00D0CB
:104A4C00BFE0130C28D1002AE7D080B4114F39668F
:104A5C007A66FFE7FFE730B4040C7B6F396F1B04F9
:104A6C0023433B667A66FFE7FFE7FFE7C04684B265
:104A7C007B6F3D6F1B0423433B667A66FFE7FFE7C2
:104A8C00C04600232C042D0C7A6F386F0019694135
:104A9C00B0BC7047000000D0F0B594460025140E51
:104AAC0001D112020835140F01D112010435940FF3
:104ABC0001D192000235D40F01D152000135D40B33
:104ACC000134254F7C66254C3C660E0C93B2FFE7F7
:104ADC00FFE7FFE73C6F6643360C7703BE46734334
:104AEC00DF0B5B04C01AB941130C7343DB18C91AF2
:104AFC00CE086643360CB64493B273431F0F1B01AA
:104B0C00C01AB941130C73431F0B1B05C01AB941D2
:104B1C00860D8F023E436643360C092D24DB520A68
:104B2C007243801A7703460A6643360C16235B1BC6
:104B3C00DE40DF40BF1964466643821B7046043575
:104B4C0006330100D940A840C01900D30131A2425C
:104B5C0006D20023F0BD0000000000D0FFFFFFFFD5
:104B6C00121B0130F3D3F1E709277F1BFE4064468B
:104B7C00A2B27243801A00D20139220C7243130C78
:104B8C001204821A99410B00704604351337010048
:104B9C00F940A840801900D30131002B02D1A24268
:104BAC000AD2F0BD013000D30131121BFAD2013B05
:104BBC00F8D1A24200D2F0BD013000D30131121B5A
:104BCC00F7E7F0B51C0C00D080E00CB400251C0AF3
:104BDC0004D11B02160E3343120208351C0B04D1F0
:104BEC001B01160F3343120104359C0B04D19B009F
:104BFC00960F334392000235DC0B02D192185B41C5
:104C0C0001351C00971864410134464F7C66464CB4
:104C1C003C660E0CFFE7FFE7FFE7C0463C6F6643C0
:104C2C00360C7703BE4697B27743C01B00D20139CE
:104C3C00C01B00D201399FB27743C91BC91B170C8B
:104C4C0077437E04FF0B801BB941CE086643360CBC
:104C5C000C2D33DBB644120B1F053A431B0B97B2DA
:104C6C007743C01B00D201399FB27743C91B170C85
:104C7C0077433E043F0C801BB941860D8F023E43A7
:104C8C00664329277F1BFE400C3D7746AF40BF197A
:104C9C0030BCA2B2ABB272437343801A9941220C5E
:104CAC007243130C1204801A994102000B00013755
:104CBC00001BA941F9D2781E0021F0BD0C277F1BE7
:104CCC00FE4077467F0BAF40FF19E0E700245D1CE8
:104CDC0007D0144F7D663966FFE7FFE7FFE7FFE774
:104CEC003C6F95B29EB265436643401BB141150CB7
:104CFC001E0C6543664336042F0C3E432D04401BAB
:104D0C00B141994204D202000B0020000021F0BDF9
:104D1C0001D19042F7D3801A994101349942F2D3D0
:104D2C00F6E70000000000D0FFFFFFFF48404140C5
:104D3C00484018B41B4B5B68FC46019308BD04DF6C
:104D4C00474B002018B4174B1B68FC46019308BD59
:104D5C0000DF514B00209446134A926F920809D2FF
:104D6C00624618B40F4BDB68FC46019308BD0CDFA0
:104D7C00094E00200C4AF0B5146E556E576F166F25
:104D8C006246FFF7EEFF084A1466556657671667CA
:104D9C00F0BD18B4034B9B68FC46019308BD08DFBB
:104DAC00AD4C002040820120000000D0FFB55040E7
:104DBC004240504059404B40594000E0FFB5154F20
:104DCC004C00640D03D0BC4204D10C0314D8002059
:104DDC00090D09055C00640D03D0BC4204D11C0311
:104DEC000AD800221B0D1B0501264B4009D44B4051
:104DFC0003D58B4200D18242FFBD9942FCD1904237
:104E0C00FFBD0B43DB1803431343F5D0C9434918CB
:104E1C00FFBD0000FF07000000B5FFF7CFFF80418A
:104E2C0000BDC04600B5FFF7C1FF01D9002000BD91
:104E3C00012000BD00B5FFF7B9FF804100BD012086
:104E4C0040054A00121804D85A00121801D8002044
:104E5C0070470120704700000021002805D17047E1
:104E6C00C1174840401AFAD0C90713B5064B1B6846
:104E7C0098470CBC441CA2401005120B0349091B9B
:104E8C0009051943114310BDB8B001201F040000DF
:104E9C0010B54C00620D8023D218DB00D21A5B05D2
:104EAC007E2A10DD9E3A13DACC1709034908194300
:104EBC005242D140640001341532202A05DAD04028
:104ECC000843604310BD002010BD0846604310BD70
:104EDC00C80FC018013810BD18B4044B5B6AFC46EF
:104EEC00019308BD24DFB94F00200000408201204F
:104EFC00132370B51D78012D19D014DD1F48FEF752
:104F0C00BBFA06001E48FEF7B7FA1E4C8022310091
:104F1C00200000F067FC022D2DD01B48FEF7A4FAF0
:104F2C001A4B186070BD1A4B164CA364F5E7184B5E
:104F3C00144C23606360A360E36023616361A3612D
:104F4C00E36123626362A362E36223636363A3632B
:104F5C00E36323646364A364E36423656365A3650B
:104F6C00E36523666366A366E36623676367A367EB
:104F7C00E367A364D1E7064BA364CEE75344000078
:104F8C0053460000408201204C330000B8B0012091
:104F9C00154B002007B5604601880A0A0230DF2A4B
:104FAC00FAD1C9B2820804D30288408800041043A5
:104FBC0000E00068014A5050039007BD4082012078
:104FCC000FB403BC0CBCF0B50124E407634000E053
:104FDC00F0B50C0DCF0F661E3605891B640503D387
:104FEC00C943404200D30131640D03D0661CF60A5C
:104FFC0007D0E41B00207F00791C89078912803CB4
:10500C0024031D0DDF0F6E1E36059B1B6D0503D390
:10501C00DB43524200D301336D0D03D06E1CF60AF4
:10502C0007D0ED1B00227F007B1C9B079B12803D51
:10503C002D032F1B661B58D4A446202E46DA20378E
:10504C001400BC401D00BD40F24033412A4380187F
:10505C005941CB0F05D0C943C04300226442504193
:10506C00514162464D0D28D10D0D07D100281FD09E
:10507C00241940414941013A0D0DF9D0640006D381
:10508C00013000D30131002C01D140084000013A1D
:10509C000BD4941CE40A04D112051144DB07194407
:1050AC00F0BDD907204B194300E0D9070020F0BD13
:1050BC000029DDD1002CDBD1F0BD0132C607400840
:1050CC00CD0728434908002EE1D0D9E73C2E29DA38
:1050DC00203E40371400BC4000D00124F240144361
:1050EC001A00BB401C43D317ACE7AC46202F08DAA0
:1050FC0020360400B4400D00B540F8403941284337
:10510C00A5E73C2F0CDA203F40360400B44000D019
:10511C000124F84004430800B1400C43C117EAE7EE
:10512C0010001900002494E70000F07FF0B50C0D7E
:10513C00661E3605891BE60A6405640D02D0651CE3
:10514C00ED0A04D0002001210905803C2403A4466B
:10515C001C0D671E3F05DB1BE70A6405640D02D0BE
:10516C00651CED0A04D0002201231B05803C24039E
:10517C007740644497B484B296B27443070C7E4370
:10518C00150C6F4380B26843361802D3012000041B
:10519C003F183004350C00197D41844688B29AB210
:1051AC0050430C0C62431F0C7C438EB27E4392190D
:1051BC0002D301263604A4191604170C36186741BD
:1051CC0001BC81B29AB25143040C62431B0C5C4388
:1051DC0080B25843121802D3012000042418100482
:1051EC00130C401863412D185E410020474106BC4A
:1051FC0088B293B258430C0C6343120C544389B2DB
:10520C0051435B1802D301210904641819041A0CC8
:10521C00091862416D1856410020474118BCF9022B
:10522C00720D1143F0026A0D1043ED020A0D03D109
:10523C006D1940414941013B124E9B1B7600B34214
:10524C000ED26D0007D301300026714166463543FE
:10525C0001D1400840001B05C918E4072144F0BDEA
:10526C000BDA013306D1013004D101314F0D01D0DD
:10527C004908F2E7E1070020F0BD013631050020B6
:10528C00EBE70000FF030000F0B51C0D671E3F05A7
:10529C00DB1BE70A6405640D02D0661CF60A04D019
:1052AC00002201231B05803C2403D0252D0600265B
:1052BC00F6432E661E096E66CE0FF619B4464900EB
:1052CC004F0D02D07E1CF60A03D000200021403F77
:1052DC003F033E1BB600B444013F7F05C91B490880
:1052EC002E6F013676089C02950D25437543ED1300
:1052FC007543AD1301356D10F603761B0CB4CC025F
:10530C00450D2C43A2B2B3B25A43270C7B43350C48
:10531C006F43A4B26C431B1902D3012424043F191C
:10532C001C041D0CA4187D4124196D41009A91B2E6
:10533C00ACB26143170C7C432B0C5F4392B25A43C3
:10534C00A41802D301221204BF182204230C5218F1
:10535C007B41019C6C431B19520ED9010A43440139
:10536C00A01A81B2B2B2514303145A43360C7343A0
:10537C0087B27743D617D21900277E4136049B1982
:10538C001704160C7F185E417316ED18F3010026F6
:10539C0080337541A90F06D16400690AE8055B0AE0
:1053AC00184309D22FE00422944480337541A90A92
:1053BC00A8059B0A184326D3404149412404009A6E
:1053CC00019B0D005543641B4343E41A95B286B20E
:1053DC007543170C7E43030C5F4392B25A43B618C5
:1053EC0002D301221204BF183204330C52197B4130
:1053FC0052429C41002C02D4002201305141400801
:10540C00CA071043490802B06246D7079210084BEE
:10541C00D218084B9A4203D212058918C919F0BD4B
:10542C000020002A01DC3900F0BD01331905F5E735
:10543C00FD030000FE070000002200B5203200F042
:10544C0004F8080000BD000000220B150AD410B5AA
:10545C00944600F031F81414013400DA0021CB1713
:10546C00144C20470020002170476244343A0CD47D
:10547C000C2A07DA04009140904052422032D4406A
:10548C00214310BDD843D94310BD203207D40C465C
:10549C009440524220321141D040204310BD0800AC
:1054AC00C917203203D452422032104110BD1800CB
:1054BC00190010BDEB4F00200A0DCC0F531E1B051D
:1054CC00C91A520503D3C943404200D30131520DCE
:1054DC0003D0531CDB0A07D0121B00206400611C94
:1054EC0089078912803A1203014BD21A70470000C7
:1054FC00FF03000051434343C9188C46110C83B27F
:10550C004B4310B4040C614392B280B250436243DB
:10551C001C041B0C001910BC59411304120CC018AC
:10552C0051416144704700004840414048400E4B97
:10553C005B6818470C4B1B6818470C4A936F9B0809
:10554C0002D2094BDB681847F0B5146E556E576FD5
:10555C00166FFFF7F6FF054A146655665767166710
:10556C00F0BD014B9B68184740830120000000D020
:10557C0007B548404140484001E0C04607B54200ED
:10558C00120E03D0FF2A03D1420218D8C00DC00559
:10559C004A00120E03D0FF2A03D14A020FD8C90DBC
:1055AC00C9050122414005D4414001D5814207BDC6
:1055BC00884207BD0143491801D0C043001807BDFC
:1055CC0000B5FFF7DBFF01D0002000BD012000BDBE
:1055DC00C10FC90700D54042002817D0F44603B4C8
:1055EC000B4B1B68984706BC81409E38404280316B
:1055FC0007D20B0607D04900490AC00510430843DF
:10560C0060470130F8E7490A8902F5E77047000066
:10561C00B8B0012041000A0E80231B067E2A0BDD48
:10562C009E3A0BDAC1174002400818435242D04050
:10563C00490001314843704700207047C00FC01823
:10564C0001387047C0420DD300B54000400800211E
:10565C0000F012F8002801D4404200BD8020000662
:10566C0000BD0000034BDB69FC4618471CDF95525C
:10567C000020000040830120014B5B6A18470000AA
:10568C0040830120132310B512481C78FDF7F4FE5B
:10569C000100012C0AD003DD80220F4800F0A2F893
:1056AC000E48FDF7E1FE0E4B186010BD0A4C54225B
:1056BC00200000F097F80B4B6365A365E365236648
:1056CC006366A366E36623676367A367E367236286
:1056DC00E361E5E753460000408301204C330000B2
:1056EC00B8B001206952002007B5604601880A0A4B
:1056FC000230DF2AFAD1C9B2820804D3028840886A
:10570C000004104300E00068014A5050039007BDAC
:10571C00408301200021C2158032803201D0024A20
:10572C001047002070470000CD2A000070B504001F
:10573C000A4E30000FF040F820000CF031FE05004E
:10574C0030000FF0F3F8002D05D0054B2C199C42BE
:10575C0001D8280070BD0348FDF7BCFDB8780120C6
:10576C00000004204853012070B505000C000B4EBE
:10577C0030000FF021F8280021000DF009FB050086
:10578C0030000FF0D3F8002D05D0054B2C199C429E
:10579C0001D8280070BD0348FDF79CFDB8780120A6
:1057AC00000004204853012070B50400054D28006A
:1057BC000FF002F820000CF0FDFD28000FF0B6F8F9
:1057CC0070BDC046B878012001480421014B184730
:1057DC003073012009300020014B1B681847000072
:1057EC0030730120014B5B681847000030730120B7
:1057FC0010B5FFF7D9FF10BD9A4200D288547047FC
:10580C007047C046F8B557464546DE464E46E0B5AD
:10581C0098460A9B06009A460D9B0F00934615006E
:10582C009B0710D10B9B0C9A93420CD213005C4635
:10583C000B9A9D1A5D442200434601343900202006
:10584C00B047A542F7D10B9C6319002C09D01D0061
:10585C0053462A1B013C185D39004346B047002CC7
:10586C00F6D10D9B9B070ED55B46EC1A0C9BA34205
:10587C0009D999462A004346390020200134B04703
:10588C000135A145F6D82800F0BCBB46B246A94666
:10589C00A046F8BDF0B54F464646D646C0B584B0D6
:1058AC0098460EAB1B7894469946129B0D9C109F04
:1058BC00119E9A0724D4002E6AD1BC4220D2012218
:1058CC001A409246202C00D1D2E00C9A551E302260
:1058DC0001E0202C30D001342A55A742F9D8524689
:1058EC00002A0DD0B4420BD20C9A551E3022202C1B
:1058FC0002D126E0202C63D001342A55B442F9D1D0
:10590C00DA0634D55A0564D4002C5ED10F9A102ACD
:10591C0000D197E0022A00D1A8E030220C9C227022
:10592C0001244A46002A5ED15A0700D483E02B2278
:10593C000C9D2A5501341CE05246002A02D0202E20
:10594C003ED92024DA0614D55A0512D4202F00D1C2
:10595C00A1E0202E3DD120261F2234000F9D102DBA
:10596C0000D18BE0022D52D030250C9FBD54202C41
:10597C00D7D103930C9B6246009302964346019445
:10598C00FFF740FF04B0E0BCBA46B146A846F0BDF4
:10599C00012215001D40AA461A4229D04A46002A67
:1059AC0039D10C321A4236D1BC429BD2202C00D0B9
:1059BC008BE710221A40202EC3D8002AA2D1D8E798
:1059CC002024DA06D5D55A0503D4A74225D0B442F3
:1059DC0023D00F9A102A25D0022A14D0202CC8D0FC
:1059EC0022000134C0E72D220C9D2A550134C0E75A
:1059FC00BC4200D384E7202C00D066E710221A406A
:105A0C00002AE0D1B5E7202CB3D022000134622566
:105A1C000C9FBD54E2E7013EC6E7621E012C00D18B
:105A2C0074E79BE79A0616D4202CA2D078220C9D02
:105A3C002A550134D2E71A079BD520220C9D2A55F2
:105A4C00013496E79A060FD478220C9C22703022EF
:105A5C006270022465E7202C00D18AE758250C9A45
:105A6C00121915700134B9E75822EEE76222ECE7FF
:105A7C00102255461A40002D9FD1C1E7023C9D06CD
:105A8C0004D478250C9F3D551400A9E758250C9F8C
:105A9C003D551400A4E71F2260E7C04610B500284E
:105AAC0000D110BD01F0D6FBFBE7C046F0B5574660
:105ABC004E464546DE46E0B599B08246894690464C
:105ACC000893229A239B10001900FFF7B8F90028BD
