:020000041000EA
:1000000000B5324B212058609868022188439860DF
:10001000D860186158612E4B002199600221596106
:100020000121F02299502B49196001219960352056
:1000300000F044F80222904214D00621196600F024
:1000400034F8196E01211966002018661A6600F04E
:100050002CF8196E196E196E052000F02FF8012189
:100060000842F9D1002199601B49196000215960AB
:100070001A491B48016001219960EB211966A021F2
:10008000196600F012F800219960164914480160C1
:100090000121996001BC002800D000471248134993
:1000A000086003C880F30888084703B5996A0420EC
:1000B0000142FBD001200142F8D103BD02B5186610
:1000C0001866FFF7F2FF186E186E02BD00000240BE
:1000D000000000180000070000035F00212200005C
:1000E000F4000018222000A00001001008ED00E03C
:1000F00000000000000000000000000074B24E7A12
:1001000000200420F7010010C3010010C5010010F9
:10011000C1010010C1010010C1010010C101001097
:10012000C1010010C1010010C1010010C701001081
:10013000C1010010C1010010C9010010CB01001065
:10014000CD010010CD010010CD010010CD01001037
:10015000CD010010CD010010CD010010CD01001027
:10016000CD010010CD010010CD010010CD01001017
:10017000CD010010CD010010CD010010CD01001007
:10018000CD010010CD010010CD010010CD010010F7
:10019000CD010010CD010010CD010010CD010010E7
:1001A000CD010010CD010010CD010010CD010010D7
:1001B000CD010010CD010010CD010010CD010010C7
:1001C00000BE00BE00BE00BE00BE00BEEFF3058054
:1001D000103800BEF2EB8871380500105805001089
:1001E0003802001090A31AE721482249086006C887
:1001F00081F30888104720480068002801D01C4877
:10020000F3E70DA40ECC002902D000F012F8F9E7B4
:100210001A491B4A002000E001C19142FCD1194952
:100220008847194988471949884700BEFDE701C931
:1002300001C29A42FBD3704758050010C00000204D
:1002400030500120C854011030500120EC910120A1
:100250008496011000000420000004208496011000
:10026000001004200010042000000000704700006F
:100270000000000008ED00E0000000D0EC9101203B
:1002800010C80120ED6C00208D0E0020E56C0020D0
:10029000E1160110B0B0A800FF100D01040206081D
:1002A0000101000000000000C9160110B0AA010001
:1002B000FF10290118323400007204A60103782EC1
:1002C0000000C20118EA0100E4010E000002000172
:1002D0007D00000000000000C8760110800101814F
:1002E000B0B0AB100000000089160110B0B0AA0039
:1002F000FFFF01007D160110F0801601B0B0B0AB19
:10030000FF101901102AAA080000D60904DE09010D
:10031000DA09040000010000000000005516011079
:10032000F0800401B0B0B0ABFF1019010F440A4EC9
:100330000198013CDA0100E2010400000100000024
:100340000000000076B20181B0ABF0800000000038
:100350000FB20181B0AB108000000000800A018163
:10036000B0B0ABF0000000003F010181B0AB708085
:100370000000000080040181B0B0ABF0000000007C
:10038000488E0010B0B0A880788E001001000000E8
:10039000E48E0010B0AB0280148F0010B0AB04806C
:1003A000948F0010AB08B180B08F001001000000E6
:1003B000E08F0010B0AA03800C9000100100000034
:1003C000A4900010AB08B180C090001001000000A4
:1003D00010930010BCFEFF7F189300100100000076
:1003E00020930010B0B0A8803093001001000000EE
:1003F00040930010B0B0A8806C9300100100000082
:10040000B0930010B0B0AA80DC930010B0B0A88008
:100410004494001094FEFF7F4C95001001000000F2
:10042000D4100110B8FEFF7F8C11011001000000F4
:1004300054120110B4FEFF7FC0120110B0B0A880AA
:10044000481301100100000050130110AB708080B0
:100450004C140110B0B0A88084140110AB08B18016
:100460001015011090FEFF7FEC1901100100000033
:10047000601A0110A8FEFF7F4C1B01100100000054
:10048000F81B0110B0A90480841C0110B0B0A88032
:10049000D81C011001000000E01C0110B0B0AA80BF
:1004A000141D0110A0FEFF7FE41D0110AB3F3A8038
:1004B000301E0110B0B0A8803C1E0110B0B0AA8060
:1004C0007C1E0110B0B0A880901E01100100000039
:1004D0008C1E0110B0B0A880941E01100100000015
:1004E000441F01106CFEFF7FB41F011070FEFF7FE0
:1004F00084220110B0B0A880A02201106CFEFF7F02
:100500004425011001000000B4260110008404807D
:10051000C4260110B0B0A880C426011058FEFF7F89
:10052000B0290110B0A80380D0290110B0B0A88074
:08053000E829011001000000A0
:10053800607501206C750120787501208475012093
:10054800907501209C750120A87501206C78012008
:10055800F8B5C04606480749091A8B10C90FC918CB
:1005680010B5491003D0044B002B00D0984710BD9C
:10057800EC910120EC91012000000000054B10B522
:10058800002B03D00449054800E000BFFFF7E2FF55
:1005980010BDC04600000000C8C70120305001202F
:1005A80070B509F033F80E4D280009F055F80D4CD8
:1005B80000280DD10C4B1C60186808F09DFF8D2396
:1005C80001225B00E254094B20001C6014F078FF04
:1005D800200000F0FFFE280009F05AF8EAE7C046BC
:1005E800189D0120F09101201CAD012020BD0120A3
:1005F80010B5024B186815F031F810BD20BD012068
:1006080070B5D02501220021072003F075FE0122D4
:100618000021062003F070FE0122002105202D068E
:1006280003F06AFE0120002103F08EF96A686C6805
:100638006B6864069B06E40FDB0F1B01A4001C43D8
:100648001306DB0F0022012107201C4303F054FE90
:1006580000220121062003F04FFE0022012105207F
:1006680003F04AFE0120002103F06EF969686A6808
:1006780009066B68C90F5206490064B2D20F9B067F
:100688000C43D200DB0F5B01002107201443012239
:100698001C4303F031FE01220021062003F02CFE4A
:1006A80064B201220021052003F026FE2A2C05D081
:1006B800302C03D0FF200C2C00D070BDE0B2FCE73A
:1006C800F0B54E46DE465746454603008C46E0B533
:1006D80063445B7985B0994601900291002B00D163
:1006E80035E280468B00039363441B0198444446DB
:1006F8000C20205604F058FFE84904F01EFF071CA0
:10070800A06804F051FF00218246381C04F0FEFE68
:100718000021041C504604F0F9FE391C051C381C45
:1007280004F00BFF002104F0F1FE391C061C5046B2
:1007380004F003FF002104F0E9FE4A46071C012AE1
:1007480000D1A5E142461420105604F02DFFD349EC
:1007580004F0F3FE42468246106904F025FF514634
:100768008346201C04F0D2FE5946041C281C04F0C1
:10077800CDFE5146051C504604F0DFFE011C301C1E
:1007880004F0C4FE5146061C584604F0D6FE011C6F
:10079800381C04F0BBFE4A46071C022A00D177E148
:1007A80042461C20105604F0FFFEBC4904F0C5FE6A
:1007B80042468246906904F0F7FE51468346201C63
:1007C80004F0A4FE5946041C281C04F09FFE514660
:1007D800051C504604F0B1FE011C301C04F096FEC6
:1007E8005146061C584604F0A8FE011C381C04F0AB
:1007F8008DFE4A46071C032A00D149E142460020E3
:100808002432105604F0D0FEA44904F096FE424665
:100818008246106A04F0C8FE51468346201C04F044
:1008280075FE5946041C281C04F070FE5146051C30
:10083800504604F082FE011C301C04F067FE594645
:10084800061C504604F079FE011C381C04F05EFEBC
:100858004A46071C042A00D11AE1424600202C32DD
:10086800105604F0A1FE8D4904F067FE4246824608
:10087800906A04F099FE51468346201C04F046FE17
:100888005946041C281C04F041FE5146051C5046DC
:1008980004F053FE011C301C04F038FE5946061CB7
:1008A800504604F04AFE011C381C04F02FFE4A464C
:1008B800071C052A00D1EBE04246002034321056CE
:1008C80004F072FE754904F038FE42468246106B09
:1008D80004F06AFE51468346201C04F017FE594670
:1008E800041C281C04F012FE5146051C504604F056
:1008F80024FE011C301C04F009FE5946061C504613
:1009080004F01BFE011C381C04F000FE4A46071CBC
:10091800062A00D1BCE0424600203C32105604F0C2
:1009280043FE5E4904F009FE42468246906B04F09D
:100938003BFE51468346201C04F0E8FD5946041C42
:10094800281C04F0E3FD5146051C504604F0F5FD53
:10095800011C301C04F0DAFD5946061C504604F010
:10096800ECFD011C381C04F0D1FD4A46071C072A7F
:1009780000D18DE0424600204432105604F014FEA7
:10098800464904F0DAFD42468246106C04F00CFE3B
:1009980051468346201C04F0B9FD5946041C281C06
:1009A80004F0B4FD5146051C504604F0C6FD011C78
:1009B800301C04F0ABFD5946061C504604F0BDFD42
:1009C800011C381C04F0A2FD4A46071C082A5FD007
:1009D800424600204C32105604F0E6FD2F4904F040
:1009E800ACFD42468246906C04F0DEFD51468046DE
:1009F800201C04F08BFD4146041C281C04F086FDD5
:100A08005146051C504604F098FD011C301C04F0AA
:100A18007DFD4146061C504604F08FFD011C381C24
:100A280004F074FD4A46071C092A31D00298019A3D
:100A380084469046039B63441B01984442465423D2
:100A4800D05604F0B1FD154904F077FD43468246BF
:100A5800186D04F0A9FD51468046201C04F056FD8F
:100A68004146041C281C04F051FD5146051C504603
:100A780004F063FD011C301C04F048FD4146061CCF
:100A8800504604F05AFD011C381C04F03FFD071CB9
:100A9800211C201C04F051FD804601E0CDCCCC3D4A
:100AA800484604F081FD311C814604F046FD41466C
:100AB80004F029FD0021061C04F06EFD002842D137
:100AC800391C484604F039FD291C071C201C04F079
:100AD80034FD011C381C04F016FD311C04F019FD0E
:100AE8001E49071C04F029FDFC21890504F00EFDB0
:100AF80004F07CFD8046029B211C1E01019B381CD2
:100B08009C4666443300A8331F6004F016FD011CA0
:100B1800281C04F0F8FC494604F0FBFC3300AC3315
:100B280042461860FC21B0238905F25004F0EEFC1F
:100B380004F05CFDB423F05005B0F0BCBB46B246EF
:100B4800A946A046F0BD002300279846D3E7002316
:100B580098461F1C1E1C1D1C1C1CA1E7ABAAAA3F03
:100B6800F0B5DE464E4645465746E0B5EC2507004B
:100B7800002414225C269DB0CB490573CB4B03900F
:100B8800CB483961B8603A77BB613C75BD55B865EB
:100B980064203C5439666C217A5402AA9446BB6698
:100BA8000F23A336634498461E70C24B14749946AB
:100BB80006AA01231C394846009408F0C7FB012304
:100BC800424650214846009408F0CAFB43466A460C
:100BD8001D781E70012350211376484606AA0094FA
:100BE80008F0B4FB0123424650214846009408F01F
:100BF800B7FB43461B782D021D43AF4B9D4200D0E7
:100C08004AE102AB9C46FF2306AA0E2516000024E3
:100C18009B460027924665445B462B7043464246F6
:100C28001C70502101234846009708F08FFB0123D0
:100C38002A0050214846009708F092FB2B7801348F
:100C480033700136582CE7D106AC52469B499C4874
:100C5800563427E049008BB209B200292EDB5B002D
:100C680099B21BB2002B2FDB49008BB209B20029C5
:100C780030DB5B0099B21BB2002B31DB49008BB231
:100C880009B2002932DB5B009DB21BB2002B33DBBB
:100C98006D00A9B22DB2002D34DB4900013289B2B2
:100CA800944235D013781B0259400BB2002BD1DA8D
:100CB8005B00434019B29BB20029D0DA4900414099
:100CC8000BB289B2002BCFDA5B00434019B29BB25A
:100CD8000029CEDA490041400BB289B2002BCDDAA7
:100CE8005B00434019B29BB20029CCDA4D00454065
:100CF8002BB2ADB2002BCBDA590041400DB289B20C
:100D0800002DCADA6D0045400132A9B29442C9D11A
:100D18001020562302AA1218D35A5BBA9BB28B42F0
:100D280000D0B9E0039B00221D0005339946242317
:100D380017009A4607AC08350FAE4A462378D355B4
:100D4800002B00D19AE0A278E178120609040A4340
:100D580061790A43217909020A4361782A60297175
:100D6800012B00D18AE0E279217A120609040A43AC
:100D7800A17A0A43617A09020A43A179AA60297310
:100D8800022B7BD0227B617B120609040A43E17B9C
:100D98000A43A17B09020A43E17A2A612975032BD8
:100DA8006CD0A27C617C120409060A43217D0A43A7
:100DB800E17C09020A43217CAA612977042B5DD0D2
:100DC8005046A27DE17D120609040A43617E0A436A
:100DD800217E09020A43617D29542A62052B4DD0E0
:100DE800E27E217F120609040A43A17FA07E0A43FE
:100DF800617F09020A432C216854AA62062B3DD060
:100E080032787178120609040A43F178E07F0A43C0
:100E1800B17809020A43342168542A63072B2DD07C
:100E28007279B179120609040A43317A30790A4392
:100E3800F17909020A433C216854AA63082B1DD0A2
:100E4800B27AF17A120609040A43717B707A0A436E
:100E5800317B09020A43442168542A64092B0DD0C6
:100E6800F37B327C1B0612041343B27CB17B134321
:100E7800727C120213434C22A954AB6439000398C4
:100E8800FFF71EFC7B1C2934012750352936022B1D
:100E980000D052E7002000E001201DB0F0BCBB46A6
:100EA800B246A946A046F0BD50FC030040A9020086
:100EB800344E0500208C0120D1070000FFFF000000
:100EC80021100000F0B5D6464F4646460025C0B56D
:100ED8000700EE4B1022036000210571D83004F0A2
:100EE80067FCE8233800FD52023308220021FD5236
:100EF800EC3004F05DFC8023F4221B01BB5202326B
:100F08000024BB523800F8230021FC54DE3AFC30A0
:100F180004F04EFC3800153006220021FF3004F0A2
:100F280047FCA4235B00FC541E230822FF33FC5417
:100F3800D74B01261A60E022D64BD2011B6813401A
:100F4800D54A13608D235B00FC54063BFC541623E2
:100F5800FF33FC540133FC541823FF33FC54013392
:100F6800FC541A23FF33FC54CC4CA31D9946CC4B9C
:100F78009846237804219A46180003F0A3F95346AB
:100F88000421581C03F09EF9534652465B081F2A59
:100F980000D977E107221A4093009B18C149C24A39
:100FA8009B009A18591815600D60C04959180D60B2
:100FB800BF498C464146634419601023536016604C
:100FC8002378013359081F2B00DD57E107220A4017
:100FD80093009B18B349B44A9B009A185918156096
:100FE8000D60B24959180D60B1498C4641466344B9
:100FF800196010235360166023785A081F2B00D9F4
:1010080038E1072111408A005218A8499200511866
:10101800096840468C4631001940494241406046C3
:101028000140A44801338446624411605A081F2BCA
:1010380000DD1BE10721114040468A0052189B49F8
:1010480092005118334009685B4243400B4099496C
:1010580002348C4662441360A1458AD1072003F00C
:1010680073F9062003F070F9D024052003F06CF919
:1010780080232406A362403BA362203BA36238007E
:10108800FFF7BEFAD023F854142003F05DF90022CC
:101098000021142003F030F9042003F055F910233F
:1010A8006362A361984608F065F91F211B2003F0CD
:1010B80009F9002200211B2003F01EF900211B2042
:1010C80003F02EF91F211A2003F0FCF8002200215A
:1010D8001A2003F011F900211A2003F021F91F2129
:1010E8001C2003F0EFF8002200211C2003F004F973
:1010F80000211C2003F014F91F211D2003F0E2F841
:10110800002200211D2003F0F7F800211D2003F024
:1011180007F9182003F018F9192003F015F98023AE
:101128005B04636280239B046362082003F00CF96C
:1011380080235B0063620920636103F005F9802363
:101148009B0063620220636103F0FEF8042300221F
:10115800A3620121022003F0CFF8032003F0F4F882
:1011680008230022A3620121032003F0C5F8524B93
:1011780052499946180008F019F902254B46504A79
:101188005B6815604A4611680F225140C0320A4018
:101198004C492B400A604C4A01211360122003F08D
:1011A80091F80121132003F08DF80121152003F097
:1011B80089F84649464808F0A1F80321102003F0B1
:1011C80081F80321112003F07DF80421172003F092
:1011D80079F80421162003F075F800224046324BB6
:1011E8003C49DA635A649A64D9641864DE63DA6342
:1011F8005A649A64D9641864DE6380233649DB0430
:101208000A68002053401B0C344A1B0413608023D7
:101218000968DB004B401B041B0C136003F094F8B7
:101228006662012003F090F865623800FFF798FCC9
:10123800C8239846B844404601F070FF1426434638
:10124800274C284D18685968274A284B04F03EF95E
:10125800013E00196941002EF6D1434618605960D5
:101268003800E0BCBA46B146A846F0BD032111409B
:101278000831E1E6032111400831C4E603220A409F
:101288000832A5E603221A40083285E6886701205D
:1012980000F0044000C0044000D004408C670120E6
:1012A800FFFF000008000540000005400C00054055
:1012B800100005400C10054000C00340286BEE00EC
:1012C80004F0034000D0034004E00340A08601007E
:1012D800208C0120FF070000480005404810054009
:1012E8004F8167F77E7B05142D7F954C2DF451585F
:1012F800B02312018218D0583C3948430433D358DC
:101308000011C018C343DB17184080231B03984201
:1013180000DB01487047C046FFFF0700F0B5C6462E
:1013280000B506F0C9F80A2002F084FB002100206D
:1013380007F064FB244808F03DF9D0210122090692
:101348000B6D1A42FCD108F0E1F8204BFA249846BC
:101358000025186002F084FCA40024184D41002DDB
:1013680002DA01241A4D64420A2002F063FB434664
:101378001E68186800F060FA0100300000F08AFF6B
:1013880003E04346186800F043FE4346186800F03F
:1013980053FA0028F5D1FA260027B6004346186804
:1013A80001F016F801200021404206F09BFA2000C7
:1013B8002900A4197D4102F05FFA002DEEDA01241C
:1013C800034D6442EAE7C046110100201CAD01202C
:1013D800FFFFFF7FF8B5DE4657464E4645460400F8
:1013E800E0B5FFF76FFD704B00252360A6235B0077
:1013F800E5501C33E550E71878337B6099466B4B12
:10140800FD60BB6000239846BE235B003D61E5524A
:101418006D3BFF3B3B629A462200654B8D321E00B6
:10142800BD61FD61FF329C460BCE0BC210003268D5
:1014380053460260B288042182802200A132FF3222
:10144800FB861170D4225200FD63A550220041464C
:10145800AD32FF321170F0221206BA64554A3021BB
:10146800FA64DC225200A618A1500C327560B560EF
:10147800A5504A463261813AFF3A7261B2618532BB
:10148800FF32F56135627562B562A55022004146AA
:10149800E932FF321170FA22474952007563B56389
:1014A800A15021006246F931FF31143209CA09C13D
:1014B800424A6346116880229200A1504049043292
:1014C800A1500432A2181C33B34643CB43C21B8835
:1014D80008211380C8239A46A24453461A688623D3
:1014E8009B00E01801F0D4FC53461A68AA239B001D
:1014F80008215200E01801F0CBFC53461B68082174
:101508005A00D218CE239B00E01801F0C1FC5346C4
:101518001A68F2239B0008219200E01801F0B8FC39
:1015280053461B6808219A00D2188B23DB00E01869
:1015380001F0AEFC53461B6808215A00D2189D23BF
:10154800DB005200E01801F0A3FCAF231D4ADB00CA
:10155800E25296221C4BD200E2524A461B4B002014
:10156800E5520433E5501A4B0021E2504246194B2C
:10157800E2548022184B5200E2520633E3181860F6
:101588005960B4234246DB00E552144B5846E254F6
:1015980021003A0001F0EAFA2000F0BCBB46B2464E
:1015A800A946A046F8BDC046B867012080320200AF
:1015B800BC67012080BB00000009000828680120E2
:1015C80045060500FF0F00007A0500007C050000B5
:1015D800840500009105000092050000A2070000A4
:1015E800F623962270B5C35A04001BB2012152009B
:1015F80093420ADC1C22FF32825C104D023A5042B0
:101608004241D817AB4241411140A6235B00E35841
:10161800CA00521A9B185D7A1E7ACE239B002A00B4
:10162800E0183021330001F0E3FCF2239B002A008C
:10163800E0183021330001F0DBFC70BDD4FEFFFF61
:10164800F623962270B5C35A01211BB25200934269
:101658000ADC1C22FF32825C274D023A5442624166
:10166800DC17AB4261411140A6235B00C358CA0096
:10167800521A9B18B9309B7AFF300400062B03D806
:101688001E4A9B00D3589F46012101F0B9FB002157
:10169800200001F0E5FB70BD322101F0B1FB1E21F5
:1016A800200001F0DDFBF6E7192101F0A9FB00217C
:1016B800200001F0D5FBEEE7322101F0A1FB00216B
:1016C800200001F0CDFBE6E74B2101F099FB00215A
:1016D800200001F0C5FBDEE7632101F091FB00214A
:1016E800200001F0BDFBD6E70F2101F089FB0C219A
:1016F800200001F0B5FBCEE7D4FEFFFF9467012080
:10170800014BC1547047C04691050000014BC154BC
:101718007047C04692050000F8B5A62396255B00E1
:10172800C258563BC35A04001BB201206D00AB429D
:101738000ADC1C25FF35655D144F023D6E4275417C
:10174800DE17BB4270412840C3001B1AD3181B7B0D
:10175800002B12D0002909D1D023802200201B069B
:1017680052005A6101220A4BE254F8BDCE239B0075
:10177800E01801F01FFC012101400029ECD0D02322
:1017880080221B06520008009A61EBE7D4FEFFFF97
:10179800A1050000F8B5A62396255B00C258563B64
:1017A800C35A04001BB201206D00AB420ADC1C25A1
:1017B800FF35655D144F023D6E427541DE17BB4231
:1017C80070412840C3001B1AD3185B7B002B12D032
:1017D800002909D1D023802200201B0692005A61DB
:1017E80001220A4BE254F8BDF2239B00E01801F0F5
:1017F800E1FB012101400029ECD0D02380221B0607
:10180800920008009A61EBE7D4FEFFFFA1050000F3
:101818008C235B00C05CC0B27047C0461A23FF33FC
:10182800C05CC0B27047C046DC23C05880B2704765
:10183800E023C05880B270471C23FF33C05C43428A
:101848005841C0B27047C046F623962130B5C35AF6
:1018580001221BB249008B420ADC1C21FF31415C8A
:10186800DD1702394C426141064CA3426A410A40E5
:10187800B423DB00C15C914202D0C254012030BDC8
:101888000020FCE7D4FEFFFF10B56930FF3001F0FF
:101898009BF810BDF623962270B5C35A04001BB2FC
:1018A8000121520093420ADC1C22FF32825C144D53
:1018B800023A50424241D817AB4241411140A62357
:1018C8005B00E358CA00521A9B18DD7ACE239B00AE
:1018D800E01801F073FBAA23013D45199B0029007C
:1018E800E01801F069FBF2239B002900E01801F0E1
:1018F80063FB9D23DB002900E01801F05DFB70BD50
:10190800D4FEFFFF8623F0B5C6469B009846AF2558
:10191800D82600B5ED00804404008159425B40465A
:1019280001F004FBCE239B00E7183800A159625B45
:1019380001F0FCFA8B23DB00A159625BE01801F08F
:10194800F5FA404601F036FBB4239B009C46604400
:10195800400020184288FF3BFF3BE252380001F06C
:1019680037FB0A4B0022E15C4118C9B22000FFF79F
:10197800BFFC074B1A68030A1B0453401B0C054A9B
:101988001B04136080BCB846F0BDC046A207000027
:101998004800054048100540AA23F0B5C6469B00FC
:1019A8009846AF25D82600B5ED008044040081593B
:1019B800425B404601F0BAFAF2239B00E718380070
:1019C800A159625B01F0B2FA9D23DB00A159625B69
:1019D800E01801F0ABFA404601F0ECFAB4239B00A2
:1019E8009C466044400020184288FD3BFF3BE25281
:1019F800380001F0EDFA0A4B0122E15C4118C9B246
:101A08002000FFF775FC074B1A6803021B0C5340B4
:101A18001B04054A1B0C136080BCB846F0BDC046C9
:101A2800A2070000480005404810054030B591B0B5
:101A3800050040220C006846504903F0BFFE002212
:101A48004F4BEA5402F00CF9B323DB009C46654483
:101A580028606960022C66D0032C00D179E0042C40
:101A680000D178E0052C00D177E0062C00D176E093
:101A7800082C00D175E00C2C00D174E0102C00D19A
:101A880073E0404B404A1B681B041B0C1360002387
:101A98003C4A3D491268120C12040A601A0720D405
:101AA8003A4A3B4912681204120C0A605A0721D4B8
:101AB800364A37491268120C12040A609A0722D46F
:101AC800344A354912681204120C0A60DB0723D520
:101AD800304B314A1B68DB431B0C1B04136011B0ED
:101AE80030BD2A4A2A491268D2431204120C0A60ED
:101AF8005A07DDD5254A26491268D243120C12042A
:101B08000A609A07DCD5234A23491268D243120493
:101B1800120C0A60DB07DBD41E4B1F4A1B681B0C28
:101B28001B041360DBE76B4619790B008A061ED588
:101B3800144A15481268D2431204120C0260C906EE
:101B4800A6D5104A10491268D243120C12040A6032
:101B5800A4E702ABE8E704ABE6E706ABE4E708ABCB
:101B6800E2E70AABE0E70CABDEE70EABDCE7054AE1
:101B78000548126892B20260E1E7C046E8670120B2
:101B88009305000070000540701005408400054072
:101B9800841005409800054098100540F6239622C9
:101BA80070B5C35A0D001BB20400012152009342C4
:101BB8000ADC1C22FF32825C1E4E023A504242412D
:101BC800D817B34241411140A6235B00E358CA002D
:101BD800521A9B18DE7A86239B002900E01801F030
:101BE800EBF9AA23013EAE199B003100E01801F081
:101BF800E3F9CE239B002900E01801F0DDF9F22378
:101C08009B003100E01801F0D7F98B23DB00290095
:101C1800E01801F0D1F99D23DB00E018310001F054
:101C2800CBF929002000FFF701FF2000FFF708FD8E
:101C380070BDC046D4FEFFFF70B5354B0400C35CD1
:101C4800012B11D0002B00D070BD02F009F8B3238E
:101C5800DB00E3181A685B68801A9941002953D0A1
:101C680001222B4BE254EFE786239B00C01801F0BA
:101C7800A1F9000180B24043264E03123268264D76
:101C880053401B041B0C2B60AA239B00E01801F097
:101C980091F9000180B240433268030253401B0CA3
:101CA8001B042B60CE239B00E01801F083F9000190
:101CB80080B24043194E03123268194D53401B0439
:101CC8001B0C2B60F2239B00E01801F073F9000154
:101CD80080B240433268030253401B0C1B042B6044
:101CE800104B1149E35C0A685B4253401B040F4ADE
:101CF8001B0C13600E4B0968E35C5B421B044B40F2
:101D08001B0C1B0413609FE70A4B98429CD9A7E75A
:101D180093050000700005407010054084000540E0
:101D28008410054091050000980005409810054072
:101D38009205000060E31600F0B54646D6464F46C9
:101D4800C0B5B14A8AB000926A46B049A6239180CC
:101D580000217F255B00C35891711E785878F109DE
:101D68002E40054040B2002801DA02200143022437
:101D78001C579878002C00DACFE0DF787F24B8462B
:101D88000327DF5720408246002F00DAB9E00424F9
:101D98001C571F79002C00DAC2E05C79A4460524A0
:101DA8001C57002C00DAF0E0062018569C79002811
:101DB80000DA14E1D1715146917241467F20D17207
:101DC8006146044094731672557217735173DE7925
:101DD800197AF4090640084049B2002901DA0221BB
:101DE8000C43092159565D7A002900DAB0E09F7A40
:101DF8007F21B8460A27DF570D40AA46002F00DA90
:101E08009AE00B215956DF7A002900DAA3E0197B02
:101E18008C460C215956002900DAD3E00D255D5770
:101E2800597B002D00DAE9E0507450469074404622
:101E3800D074604650757F200140D47316741775AE
:101E480091759E7BD97BF4090640084049B2002968
:101E580001DA02210C4310255D57197C002D00DAA8
:101E680090E07F2529408A46112159565F7C002938
:101E780000DA7CE01225997C5D578C46002D00DA4B
:101E880093E01325D97C5D578846002D00DAA9E038
:101E9800142159561D7D002900DAB2E05146917689
:101EA80061461177414651777F210D409577D4756A
:101EB80016765076D776587D9C7DC5090840214016
:101EC80064B2002C01DA02242543DC7DDB7D5BB2A1
:101ED800002B67DB2023D0540133D15422215E33F9
:101EE800234053542323D531D154002000210133FA
:101EF800D57706F02FFB0AB0E0BCBA46B146A84633
:101F0800F0BD40462040042408271C57394380462A
:101F18001F79002C00DB40E702E0042421432CE772
:101F2800102421436F3427405C79A44605241C57AC
:101F3800002C00DB38E728E045460D400B21082738
:101F480059563C43A846DF7A002900DB5FE702E0E8
:101F580004210C434BE710210C436F310F40197BD0
:101F68008C460C215956002900DB57E72AE0082146
:101F78002F4012250C435D57997C8C46002D00DBC1
:101F88007FE712E004252C436BE7202460462143B9
:101F98005F3420408446062018569C79002800DBD0
:101FA80008E71CE004231D4394E710252C436F35F4
:101FB800294013258C465D57D97C8846002D00DBC7
:101FC80066E70FE0202165460C435F310D40AC46C3
:101FD8000D255D57597B002D00DB25E70EE04020DD
:101FE8000143E7E620252C435F3529408846142124
:101FF80059561D7D002900DB50E702E040252C439F
:1020080012E740210C4349E7F07D03020105000077
:10201800F8B5184D06212878174C43005840C0B22F
:1020280002F030FCC9B2635C59081F2B1DD8072287
:102038000A409400114EDB07A418DB17104A5E40D3
:10204800A400A71832003B6800219A4313000D4AE8
:102058000D4894466444236001F076FC3B683340A5
:1020680023602B7801332B70F8BD03220A40083215
:10207800DFE7C04606C801208C670120FFFF00008B
:102088000C0005400C100540204E0000F0B5C64677
:1020980000B5314B84B0009386239B00C618050019
:1020A800300000F087FF6C46C0092071300000F056
:1020B80081FFAA237F269B00EF183040607138000B
:1020C80000F078FFC009A071380000F073FFCE233C
:1020D8009B00EF183040E071380000F06BFFC0093A
:1020E8002072380000F066FFF2239B0098463040CB
:1020F800A8446072404600F05DFFC009A0724046E7
:1021080000F058FFD823EB5896215B112373F62370
:102118000640E672EB5A01221BB249008B420ADCE8
:102128001C21FF31695CDD170239484241410B48E7
:1021380083426A410A403800627300F03FFFF72388
:10214800A073E37322000021E73B002006F002FAA7
:1021580004B080BCB846F0BDF07D0310D4FEFFFF8C
:1021680070B5040002292DD017D800293BD0324B76
:1021780080269C460025644436032800FF2102F08F
:1021880059FB2E4B9C4680231B0160449C466544AA
:1021980020800234B542F0D170BD032937D1264BD7
:1021A80080269C4600256444F6022800FF2102F0A0
:1021B80041FB8023DB009C46654420800234B54205
:1021C800F3D1E9E71C4B00259C461D4E64442800CA
:1021D800FF2102F02FFB1B4B20809C4665440234F4
:1021E800B542F4D1D8E7144B00259C46164E6444FA
:1021F8002800FF2102F01EFB144B9C46144B604440
:102208009C46654420800234B542F1D1C4E70A4BAC
:1022180000259C460C4E64442800FF2102F00AFB6E
:102228000A4B9C460A4B60449C4665442080023415
:10223800B542F1D1B0E7C046A205000000FCFFFF9F
:1022480000FF0700FF07000000FF0F0000F8FFFF76
:10225800FF0F0000F623962270B5C35A01211BB266
:10226800520093420ADC1C22FF32825C084D023A7B
:1022780054426241DC17AB4261411140A6235B0026
:10228800C358CA00521A9B18997BFFF769FF70BDA3
:10229800D4FEFFFF8023F0B5C6469B00C518040096
:1022A80000B5280000F02CFC280000F05DFCA623F7
:1022B8005B00E05082882000434B6930E252E15ACB
:1022C800FF3089B200F0BAFBF6239622E35A0121C7
:1022D8001BB2520093420ADC1C22FF32A25C3B4D27
:1022E800023A50424241D817AB4241411140A6231D
:1022F8005B00E358CA00521A9B185D7A1B7A2A00C1
:102308009846CE239B00E71830214346380000F05A
:102318006FFEF2239B00E6182A0043463021300066
:1023280000F066FE2000FFF78BF9F6239622E35AA9
:1023380001211BB2520093420ADC1C22FF32A25C2C
:10234800224D023A50424241D817AB424141114016
:10235800A6235B00CA00E358521A9B183800DD7A9E
:1023680000F02CFEAA23013D45199B00E018290026
:1023780000F022FE2900300000F01EFE9D23DB0045
:102388002900E01800F018FEF6239622E35A0121EE
:102398001BB2520093420ADC1C22FF32A25C0B4D96
:1023A800023A50424241D817AB4241411140A6235C
:1023B8005B00E358CA00521A9B182000997BFFF76C
:1023C800CFFE80BCB846F0BD7A050000D4FEFFFF02
:1023D800F0B5DE4657464E464546E0B5BE4F0600C8
:1023E8007B1E9B468BB00021002006F00FF80028CA
:1023F80000D1D1E080233A000021002006F018F82F
:102408000428F0D93B78F02BEDD15B461B5CF72B09
:10241800E9D17B787D2BE6D1BB78032BE3D1FB7820
:10242800012B00D1C3E1032BDDD118220021441F69
:1024380004A803F0BDF9A949B046002200230E0004
:10244800B9469C4200D8B6E1591C8A468C4200D84D
:10245800C3E1511C8C4601217F25F05C9F1C014083
:102468004942A9435546755D294304ADA954BC4268
:1024780000D8AFE16146182971D00225D91C8A46D7
:10248800F15D054201D080273943951C03956546C7
:1024980004AF7955544500D890E1911C18295ED0B5
:1024A800191D8C4604255146715C054201D07C35C6
:1024B8002943D51CAA46971C04ADE955644500D8A4
:1024C80085E1514618294AD0591D039108256146CE
:1024D800715C054201D078352943151DAC46554637
:1024E80004AF7955591D8C4200D878E16146182906
:1024F80035D01025991D8A46591D715C054201D0B9
:1025080080273943551D0395654604AF79555445D1
:1025180000D853E1511D182921D0D91D8C462025FA
:102528005146715C054201D060352943951DAA4684
:10253800571D04ADE955644500D848E151461829AE
:102548000DD061460833715C400601D580200143F7
:10255800504604AD07322954182A00D071E7A62442
:102568004646640004A91822305903F027F95C4B49
:102578004F46F25A33599A8080239B00F01800F096
:102588008DFA00213000FFF785FE0021002005F0BC
:102598003DFF002800D02DE7040001F061FB514BFE
:1025A80000900191F25A002A00D1A3E0FA22F15AD0
:1025B8005201914200D39DE0494AF05AB15A8842EB
:1025C80000D197E0A6214900F05A71588880F15A45
:1025D80089B2B152F452F3180099019AD9601A617C
:1025E800B2230122DB00F254F35C3500B935FF3524
:1025F800280000F08DFB3000FFF71EFB8B23DB006B
:10260800F01800F0D7FC9D230400DB00F01800F060
:10261800D1FC2100340002006934280000F024FCB9
:10262800FF343000FFF70CF8200000F0EBF9002829
:1026380005D08C235B00F35C002B00D1A7E01A23A4
:10264800FF33F35C002B00D18BE01823FF33F35CDE
:102658000022002B33D0F023F3581BB2002B2ED0CE
:102668005B00172B00DCBDE05B2B00DCBDE08E2B94
:1026780000DCBDE0BC2B00DCBDE0E62B00DCBDE0EF
:102688001932FF32934200DABBE03032934200DA6B
:10269800BAE03032934200DCB9E03432934200DCD5
:1026A8008FE03432934200DAB4E00F4A934200DC00
:1026B800B3E091210C2289008B4200DC84E00B4BB3
:1026C8000B4CF254335D002B56D10BB0F0BCBB461B
:1026D800B246A946A046F0BD64BD012068BD0120F0
:1026E8007A0500007C05000012020000A207000025
:1026F800A10500004A4BF25A002A09D0FA22F15AE1
:102708005201914223D2F25A464BF35A9A421ED0B2
:10271800B223DB00F35C002B00D166E70098019937
:10272800B123DB00F3181A685B68801A99410A1E06
:1027380003D13D4B984200D857E780239B00F018FF
:1027480000F0ACF9B2230022DB00F2544DE700227E
:10275800334BF252B223DB00F35C002B00D144E789
:10276800DCE7200000F052F9002800D16DE70021D5
:10277800200000F043F968E7002005F037FE002844
:10278800A3D03000FFF782FC002333559DE72000DB
:10279800002100F02FF9A6235B00F35820009A8847
:1027A800204BF252F15A89B200F048F947E730005D
:1027B800FFF7C2FA17E646464F4614E65346039A11
:1027C800CAE60822D2B27AE7013AD2B277E752468D
:1027D8006346C1E662463B00BEE60B0031E6624650
:1027E800039BB9E60022D2B269E70122D2B266E7BA
:1027F8000222D2B263E70322D2B260E70422D2B245
:102808005DE70522D2B25AE70622D2B257E707227D
:10281800D2B254E70922D2B251E70A22D2B24EE725
:102828007C0500007A0500007F841E0042181532DE
:10283800FF32127803000020002A07D0022906D0B0
:102848000DD8002907D0F622985A00B27047EC221A
:10285800985800B2FAE7F422985A00B2F6E703292A
:10286800F4D1F022985800B2F0E7C046F42370B5CE
:102878001C4DC35A2A6804001BB2002A01DD013A24
:102888002A6019490878002804D11F2B01DD002A85
:1028980005D070BD1F33FCDA00230B70F9E7012364
:1028A8000B7086239B00E01800F08AFBAA239B008C
:1028B800E01800F085FBCE239B00E01800F080FBB9
:1028C800F2239B00E01800F07BFB8B23DB00E01871
:1028D80000F076FB9D23DB00E01800F071FB30234D
:1028E8002B60D6E7E4BD012005C80120C268036952
:1028F80070B5D318934289414942017538211500B2
:102908001E00C360415CC46B8D408E40B54201D946
:102918000134C463C1690131C161016AA14206D9A8
:1029280040210024415C4475002906D170BD002176
:102938004024C1630131015541759342F6D2002309
:102948004022C3638354F1E7007D7047407D7047A0
:10295800C0697047826910B50400002A30D0436806
:102968008A1A934228D88368934225D38161002A22
:1029780028D000230020012101F0C2FF02002061BD
:102988004123E35C002B03D0E168A36C994205D88E
:102998000121002321753F31E3606354002A0DD0E3
:1029A80000230021E06C02F091FD962200239200A2
:1029B80002F08CFD88B202E00023A361002010BD64
:1029C8008161FBE70269DBE7490041188B8C10B590
:1029D8000122036240234121C254415C002907D0EF
:1029E800C468816C8C4203D800210275C160C1544F
:1029F80010BDC0464123C1547047C0464223C1544C
:102A08007047C0464123C05C7047C0464223C05C43
:102A18007047C04643230122C25470474423012211
:102A2800C2547047030043220021805C99547047C8
:102A3800030044220021805C9954704710B50400BB
:102A480000290ED0C26C93009B181801C01AC00050
:102A580001F018FF002302000121002001F050FFBF
:102A6800206110BD006910B5002805D002000023C0
:102A78000020012101F044FF10BDC0460300006999
:102A880010B5002808D002001C6A0020002301218C
:102A980001F036FF0009604310BDC046802270B5C2
:102AA8000400134D13495201280002F087FE182232
:102AB8002900200011F048FC002817D00E4B802276
:102AC80029001D001800520102F078FE182221008A
:102AD800280002F073FE80210848490113F0F2F83B
:102AE800802229000548520113F02CF970BDC04618
:102AF8001C9D012000F01F1020AD012000F01F00D8
:102B080030B5040018220D0087B0134902F056FEB4
:102B1800124B22689A4201D1002D1AD06B4600212F
:102B28001122D81D02F044FE0D4B02AA23CB23C26A
:102B38001B88694613806A46084B20000093094B9E
:102B4800938005239371162202F038FE2000FFF7C8
:102B5800A5FF07B030BDC04600F01F10464E4F43DA
:102B68002C680120450600007047C046416082601D
:102B78007047C04670B504008068FFF7E5FE00287E
:102B880000D08CE0A068FFF7E1FE002800D07CE0D0
:102B9800A068FFF747FF002802D00122594B1A709E
:102BA800A068FFF745FF002827D00123564E574D50
:102BB80033702B78002B49D0524E3378002B00D03D
:102BC80077E02E22A35C002B5AD0636A013B636234
:102BD800002B55D1A35400216068FEF79DFD2C23DE
:102BE800E35C002B05D0E369013BE361002B00D1D6
:102BF80081E02B78002B25D107E0444D2B78002B62
:102C0800DAD1414E3378002B20D12F22A35C002B40
:102C180009D0A36A013BA362002B04D1002160689C
:102C2800A354FEF7B7FD2D22A35C002B09D0236A1D
:102C3800013B2362002B04D100216068A354FEF7F6
:102C480065FD2B78012253402B7070BD012160680F
:102C5800FEF7A0FD01006068FEF758FDA3692D226C
:102C6800A3622369606823620123A3540232A35438
:102C7800FEF792FE002333702B78002BC5D0A0E717
:102C88002C23E35C002BAED1DBE76068FEF7C6FDC2
:102C9800002800D07CE701221B4B1A7078E7606897
:102CA800FEF7B6FD002800D06CE70122154B1A701C
:102CB80068E701216068FEF72FFD00280DD16068E4
:102CC800FEF720FE002333702B78002B99D02E229C
:102CD800A35C002B00D078E7D2E701216068FEF7FB
:102CE8000FFD63692C2263622369E3610123A35406
:102CF8000232A354E3E72C2200216068A354FEF7B4
:102D0800FFFC76E702C8012003C8012004C801209F
:102D1800F8B504004068FEF78BFD022105006068E5
:102D2800FFF784FD3D23E65C0700002E48D0310004
:102D3800324801F0A7FDED1901002DB2400828180E
:102D480001F0A0FD86422ED985B2C0B286422FD9A5
:102D58003C23E35CAB4231D16068FEF765FD3F235D
:102D6800E65C0500002E3AD03100244801F08AFDC7
:102D780001004008401901F085FD864211D93E2620
:102D8800201840300578A35DAB4204D02900606864
:102D9800FEF704FFA5556068FEF756FD002820D110
:102DA800F8BD701EEBE7701E85B2C0B28642CFD860
:102DB8003C23013EE35CB5B2AB42CDD0EDB200E0BE
:102DC800FF2529006068FEF75FFD3C23E554606835
:102DD800FEF72AFD3F23E65C0500002EC4D1002043
:102DE800CDE76068FEF7FCFB6068FEF729FC6068C9
:102DF800FEF750FD6068FFF72DFAD1E7FF0F0000DE
:102E080070B5466B04008E19642E00D96426A56B34
:102E18004D19642D00D96425A068FFF723FE320000
:102E28000023002102F052FBC822002301F068FDB4
:102E38006061602800D260206061A068FFF71EFE14
:102E48002A000023002102F041FBC822002301F0E0
:102E580057FDA061602800D26020A06170BDC04607
:102E68003023C1547047C046302330B5C55C803923
:102E780069430C00803A55434F33EA17C917194084
:102E880013405B190919C911DB114163836330BD14
:102E980010B58C230024C4520233C4544160144931
:102EA800002A00D10A68134B5343134A94466344DB
:102EB8000B605B080380114B30228360104BC360AA
:102EC800104B0361104B4361104B8361104BC3617E
:102ED800104B0362104B4362104B8362104BC3626A
:102EE800104B0363104B43638823C25010BDC04688
:102EF800648B01206D4EC6413930000030313233C9
:102F08003435363738393A3B3C3D3E3F4041424301
:102F18004445464748494A4B4C4D4E4F50515253F1
:102F28005455565758595A5B5C5D5E5FF8B5561153
:102F380073000D000400D11A9A420AD01A4B1B489C
:102F48001A6850431A4A944660441860400801F0D1
:102F580099FC8E23E05C71182388002801D18C220B
:102F6800A352461C6268F6B2964219DA0230C0B221
:102F78001F00013A17415B003AB21BB2A9420BDBB2
:102F8800012191430B438E229BB22380A054002E33
:102F980001D1023AA352F8BD01210A401343F2E7D6
:102FA80001200026E4E7C046648B01206D4EC6412F
:102FB800393000000078704741607047808870475A
:102FC8008C23C35A002203808E23C2547047C04604
:102FD8008823C258002A09D0037853431B129A4207
:102FE80002DDC018007A7047531EFAE70020FAE79E
:102FF800F0B54546DE4657464E46E0B5904683B0A6
:10300800062B36D81D4A9B009A5801921C4A9E5896
:1030180088230022C2504346002B23DB8946002E1A
:1030280020DD00239C4688339B460024019AA30098
:10303800D358CB187F2B08D85A465F4685586A1C48
:103048004519C2512B727F2A0CDC0134B442EDD1F0
:1030580001239A460B33D4449A46D144C44501DC33
:103068004946E2E703B0F0BCBB46B246A946A046D3
:10307800F0BD044B0C260193CAE7C04658680120EE
:103088003C68012008690120004870474475012008
:1030980000487047DC74012070B5002823D003284D
:1030A8002CD8174B8000C558280011F021FBC0B25E
:1030B800041C1F2812D8E4B2002808D00023114AA3
:1030C800E95C01331180D9B202328C42F8D8C022AF
:1030D8000134E3B25B00920013430CE01F24E4B216
:1030E8000028EBD1F3E7064B02221968054802F0E5
:1030F80065FBC1239B000448038070BD0020FCE7EA
:10310800688B0120BEBF0120BCBF012010B502485A
:1031180000F004F810BDC046F0C7012010B588B013
:1031280004000D220021684602F042FB0D22002116
:1031380004A802F03DFB4B236A466846137004A9B5
:103148000D2212F03FFE152108222000694402F0EA
:1031580035FB08B010BDC0468023DB051868000F9A
:103168007047C0460FB400B5084883B004F086F92C
:10317800049B002B07D005A91800019103F08AFFD2
:10318800034804F07BF9012003F09CFF58690120F3
:1031980068690120EFF3108072B6034A1368002BA8
:1031A800FCD0BFF35F8F70472C0100D0BFF35F8F57
:1031B8000022024B1A6080F3108870472C0100D05F
:1031C80070B5EFF3108C72B60D4D2B68002BFCD048
:1031D800BFF35F8F0724CB08C618C05C01230C40DF
:1031E800A3401C000440034207D118433070BFF3CA
:1031F8005F8F2C608CF3108870BD1000FFF7B2FF52
:103208002C0100D0F8B54746CE46884680B5EFF386
:10321800108C72B61C4D2C68002CFCD0BFF35F8F4D
:103228009A4222D807210126894602E001329342B8
:1032380018D34D4637001540AF40D4080119045D36
:103248002742F3D110003C430C70BFF35F8F00227C
:103258000D4B1A608CF3108800280EDBC0BCB946F1
:10326800B046F8BD01204042EFE7BFF35F8F00236F
:103278002B608CF31088012040424346002BEDD090
:103288000898FFF76FFFC0462C0100D0044A107859
:10329800431CDBB2172B00D9102313707047C046AC
:1032A800788B012010B5064B064C82B001000093C4
:1032B80018221F232000FFF7A5FF02B010BDC0464B
:1032C8006C6901206CC301200021044B044ABFF340
:1032D8005F8F02C39342FAD17047C046000100D005
:1032E800800100D0002310B50100988A1B8B9847F5
:1032F80010BDC046162310B50100188802331B887C
:10330800984710BDF8B54746CE4680B50F1E18D071
:1033180014239946043304000025012698464B4699
:103328001888434621681B88984701C4431E984162
:1033380001350640AF42F2D13000C0BCB946B046B4
:10334800F8BD0126F8E7C0460A4B1968EFF310806C
:1033580072B60A68002AFCD0BFF35F8F1B68BFF300
:103368005F8F00221A6080F3108840BF0020002180
:103378007047C046FCC70120F0B5DE4657464E46AA
:103388004546E0B587B0EFF30583032201251A40CF
:10339800954091008846A946B34B03925C58B34BBD
:1033A8001D60B34B04934B46B24843630823E55E64
:1033B800002D37DAA3881BB2002B00DBADE0A37920
:1033C800002B00D0EEE00823E05E002820DB43005D
:1033D80062691B18DB00D3189E68DD68731C00D176
:1033E80011E1A44801004144826A0B69B71A9B1A8B
:1033F8009F4215D30123026A039883401A420FD0D3
:103408009C4800F025FC8D4202DCCCD18642CAD90A
:1034180040BF07B0F0BCBB46B246A946A046F0BDC7
:103428000E61EDE762696B0092465B19DB009A4416
:1034380053469E68DF6800F00BFC8F42BADC00D16F
:1034480003E1002F00DAE8E05246534652691B694F
:103458009346049A934200D1D9E052460821605E0F
:1034680052880004594610439847009001910099EA
:10347800019A0B001000134300D1CEE013000A009C
:10348800B61A9F41002806DB7A4800F0E1FB009E4F
:10349800019F36184F4153469E60DF6000229A5EB6
:1034A800002A00DA86E7530099186069C9004118B4
:1034B80002938B68C9689B46B94200DD7AE702D15E
:1034C800B34200D976E708239C46A444059565468F
:1034D8002281A446029B2C0006E053009918C900DB
:1034E80041188D68C968AB469B18DB00C318B94200
:1034F80006DC00D1B3E01C000023E25E002AECDA0F
:10350800230064469C4653461A806346059D1D80E9
:10351800A3881BB2002B00DA51E72269EFF3108170
:1035280072B61368002BFCD0BFF35F8F0123A78806
:103538005B42A3803FB22369BFF35F8F00221A600A
:1035480081F31088002F00DA39E7230008332200BE
:103558009A4666697B00DB19DB00F31899685046C8
:103568008C460824115FDD68002910DB029306E011
:10357800AB4244D00023E15E2000002906DB4C006A
:103588006418E4003419E368AB42F1DD029B07805C
:1035980000201F5E1980002FDCDA1400A379002BAD
:1035A80000D110E70023A37126000823E15E083646
:1035B8004B1C00D12CE70800A246656902E03E00DA
:1035C8004B1C1AD04B005B18DB00EF180A008C4626
:1035D800E95E7B881BB2002BF1DA01235B42DC1722
:1035E800BB60FC60824205D0534631801B893B801A
:1035F80053461A8160464B1CE4D15446E5E6A3685D
:103608006345B7D9C2E76B1C00D0EAE6F8E65B462B
:1036180058461B69984700281BD153461B882269C6
:103628002381EFF3108372B611680029FCD0BFF331
:103638005F8F514662880A8022696580BFF35F8F79
:103648000021116083F31088B4E6864200D8F8E6BA
:10365800B0E65B461A685B680092019307E7B345DA
:1036680000D848E74CE7C046E0C701203C70054059
:10367800E92E00200040054070B52E4C2569002D2C
:1036880004D00A212C4800F0D1FD70BD2B4E032137
:10369800300000F0D3FAE660FFF7F8FD284B03226C
:1036A8009C46D02322701B061B6801216370254BA2
:1036B8006044A3600F238000206102206380636957
:1036C8004942A18019800231198647311D83585219
:1036D80018315A5275325C3999521832013199525F
:1036E800183201319952183201319952083518327D
:1036F8009D520231183299521832013199521832BA
:1037080001319952183201319952183201319952C6
:103718001832013199520C4B0C49DC60013035628A
:1037280000F01CFB0121032000F0FAFA084B1D6091
:10373800A7E7C0467C8B0120FCC70120004005405C
:1037480040000034FFFF1000E0C70120E92E0020F0
:103758003860054070B501000469EFF3108C72B64B
:1037680020680028FCD0BFF35F8F02200D5E4C69F3
:1037780068004019C00024180869002D36DB268827
:103788004E80BFF35F8F002606608CF31088E360DD
:1037980063880498013320615B0405985B0CA26080
:1037A80060611A1C002B1FD093B228046280184352
:1037B8000A69EFF3108C72B61368002BFCD0BFF3C4
:1037C8005F8F8B8823808D800B69BFF35F8F00220A
:1037D8001A608CF310880B7801329A40CB6808493C
:1037E8008C4663441A6070BD0122DDE7BFF35F8F2A
:1037F800002303608CF3108801204042F3E7C046A1
:103808003C20000010B543890A1493421ADD530086
:103818009B184269DB00D3180469EFF3108C72B669
:103828002268002AFCD0BFF35F8F5A88090494B23B
:10383800090C8A4208D00369BFF35F8F00221A601F
:103848008CF31088002010BD8022120214435C8083
:10385800012302698371BFF35F8F002111608CF32C
:103868001088044902788C469340C268012062445B
:103878001360E8E73C200000F0B506000F000624BE
:103888006442E517C646A4197D4100B582B08D4251
:1038980014D811D000F0E4F922002B00121A8B4141
:1038A800002B15DC002B44D03000390000F016FA4C
:1038B80002B080BCB846F0BD8442EBD90024002594
:1038C80000F0CEF922002B00121A8B41002BE9DD03
:1038D80000F0C6F922002B00121A8B41002B0ADBDC
:1038E80000230193144B2200009314482B00FFF788
:1038F80031FF0130D8D0A04629000024104A1148D1
:10390800536A994204D8956A4545CDD29942CBD19C
:103918000568EFF3108C72B62B68002BFCD0BFF350
:103928005F8F0368BFF35F8F1C608CF3108820BF24
:10393800E6E7002AB8D0CBE7B92E00207C8B01201F
:1039480000400540FCC70120F0B5C64600B582B06E
:1039580004000D0000F084F924184D41002D02DA0E
:1039680001242F4D644206267642F71736196F4117
:10397800AF4214D811D000F073F932003B00121A8C
:103988008B41002B15DC002B46D02000290000F0CD
:10399800A5F902B080BCB846F0BDA642EBD9002616
:1039A800002700F05DF932003B00121A8B41002B12
:1039B800E9DD00F055F932003B00121A8B41002B6B
:1039C8000ADB00230193174B3200009316483B0093
:1039D800FFF7C0FE0130D8D000233900B0469C461E
:1039E800124A1348536A994204D8966A4645CCD27B
:1039F8009942CAD10668EFF3108772B63368002B74
:103A0800FCD0BFF35F8F0368BFF35F8F66461E600D
:103A180087F3108820BFE5E7002AB6D0C9E7C0467B
:103A2800FFFFFF7FB92E00207C8B0120004005405E
:103A3800FCC70120F0B5C64600B582B0040000F00E
:103A48000FF9FA2206000F0020000023002192003F
:103A580001F03CFD8019794104000D1E02DA0124B1
:103A68002E4D644206267642F71736196F41AF424B
:103A780014D811D000F0F4F832003B00121A8B4130
:103A8800002B15DC002B46D02000290000F026F979
:103A980002B080BCB846F0BDA642EBD9002600278C
:103AA80000F0DEF832003B00121A8B41002BE9DDF2
:103AB80000F0D6F832003B00121A8B41002B0ADBCB
:103AC80000230193164B3200009316483B00FFF782
:103AD80041FE0130D8D000233900B0469C46124A36
:103AE8001248536A994204D8966A4645CCD29942FC
:103AF800CAD10668EFF3108772B63368002BFCD082
:103B0800BFF35F8F0368BFF35F8F66461E6087F35E
:103B1800108820BFE5E7002AB6D0C9E7FFFFFF7F7E
:103B2800B92E00207C8B012000400540FCC70120F5
:103B3800F0B557464E46DE464546E0B506000F004E
:103B480085B0EFF3058399468B46002B12D0384990
:103B580000204B6ABB4206D38A6ADB1B591E8B4185
:103B6800B2424041184305B0F0BCBB46B246A94634
:103B7800A046F0BD2F4B9A46DB68984653461B7803
:103B88004046039300F064F84246039B0400043364
:103B98009B009B580D001B1A39003000001BA941DF
:103BA800894510DC0DD020BF214A0020536A5B45AF
:103BB800D9D3926ADB1B591E8B41B242404118434C
:103BC800D1E78342EFD900F04BF832003B00121ADC
:103BD8008B41002B1ADB00230193174B3200009313
:103BE80050463B00FFF7B6FD011E0FDD104B5A6A29
:103BF8005A451BD39B6AB34216D35046FFF702FEC1
:103C08000B4A0020536A5B45ADD3D2E7084A00202F
:103C1800536A5B45A7D30020926ADB1BB24240413E
:103C28005A1E934118439EE75A45E6D120BFE4E760
:103C3800004005407C8B0120B92E002010B5024AB7
:103C48000248FFF7BDFA10BD8869012070C3012042
:103C58000300416A0A00986A596A8A42FAD1704791
:103C6800034B596A0A00986A596A9142FAD1704717
:103C78000040054070B504000D00174A536A19004A
:103C8800966A536A8B42FAD13000190024184D41C4
:103C9800AB4216D813D0104B2A005B6A9D4203D959
:103CA8000D494B6A9342FCD3934207D10A4A02E07A
:103CB800516A994202D1916AA142F9D370BDA642D4
:103CC800E9D9054B5B6A1C005A1CEFD0012201247C
:103CD8006442E5175242E3E700400540064A536A4A
:103CE8009942FCD807D1044B02E05A6A914202D1AA
:103CF8009A6A9042F9D8704700400540054B064A39
:103D08001360064A136053609360D3601361536174
:103D1800936170478080808000E400E004E400E064
:103D28001F2318401E3B8340002905D0C021044AA8
:103D38004900535013607047802201498B50FAE7BD
:103D480000E100E001228240034B1B6813405A1E29
:103D58009341D8B27047C04600E100E070B50D004D
:103D6800EFF3108672B60F4A1368002BFCD0BFF32E
:103D78005F8F0D4B10309B6884001B590B4A934290
:103D880003D09D4201D000F063FC074B9B681D5196
:103D9800BFF35F8FBFF35F8F0022024B1A6086F379
:103DA800108870BD240100D000ED00E0CD010010A6
:103DB800F0B557464E46DE464546E0B585B00600A6
:103DC80000911700EFF3108B72B66A4A1368002B44
:103DD800FCD0BFF35F8F0025674B5D579A46002DD7
:103DE80000DAA9E06B00654C01935B199B009846CB
:103DF800A146C1444B4652469B7910361370604B1E
:103E0800B6009B6899590B1B2F2B33D95D4B9942F0
:103E180000D0ACE0019B42469C465B4B6544AD003C
:103E280063535A4B0232A218043B9B1A1B05584A8B
:103E38005B0D651913436B80564B0121AB80FF2343
:103E4800AB71009BEF71AB604B460B4319004C4BB9
:103E58009B689951BFF35F8FBFF35F8F0022454B7B
:103E68001A608BF3108805B0F0BCBB46B246A94671
:103E7800A046F0BD01200A008243D3798C46BB429C
:103E880031D84546130044491B1B5B415943090D72
:103E98003D4B63533D4B02356519043B5B1B1B05CA
:103EA8003B4D5B0D2B43AA464D466B800425AC4623
:103EB8005546E044131F44441B1B1B055B0D1D4363
:103EC8004B46997100999D8099604946DF71334B43
:103ED80001431360BBE75800C01880002018C1795F
:103EE800B9422FD902000623D356002BF3DA0293E6
:103EF8002B4B61460393131D9A4604235B429C4651
:103F0800E14450464B461B1A1B055B0D9C46204B53
:103F1800957198466346404603439380019B5A191E
:103F28009200039BA418A380029B1C4AA371009BC8
:103F38002260E771A3608AE700F08AFB00255346F8
:103F48005D574FE7908802934005131D9A46031565
:103F580061469C464046D444634604302018181AEB
:103F6800E0230005400D1B0218430390C5E700F04D
:103F78006FFB4FE7240100D00CC80120948B01206F
:103F880000ED00E0CD01001000A1FFFFC48B01206F
:103F980000E0FFFF01BDFFFFAAAA0000014880471B
:103FA80001BD0000F0B5DE4657464E464546E0B531
:103FB8000C0083B0EFF3108872B6634A1368002BC5
:103FC800FCD0BFF35F8F614B61499A6803001033DF
:103FD8009F00D55901938D4243D0A54254D05D4EE0
:103FE800AA1B2F2A3DD85C4B9B461B689946012388
:103FF8001A009C4682404B4613401F22994663464E
:10400800024093409A4680225B4650469850BFF340
:104018005F8FEFF305839B46002B37D0019B5B45F1
:1040280001D000F015FB01232A009A4390688442CE
:1040380008D176E04B005B189B00F318986884421F
:1040480036D01A00062151560029F3DA844254D09A
:104058004B46002B27D0C02251463F4B5200995067
:1040680019603A4B9B68DD51BFF35F8FBFF35F8FD9
:104078000022354B1A6088F3108803B0F0BCBB46A9
:10408800B246A946A046F0BD0D00EAE72A006346FD
:104098009A4390688442D5D1062010561300002810
:1040A8000ADA0D0031E0802351462B4AD150D8E777
:1040B80006201856002821DB4200111889007418C0
:1040C8008B46A1689960E179D97106216156997189
:1040D800002924DBA488F11A640524155C44091915
:1040E80009051E4C490D2143998013181C4A9B0051
:1040F8001178F31899711070AAE71300594600292E
:1041080014D1FF3191711749918015490A789A7134
:10411800154A9B1B5B415A43120D0A7098E71149D7
:10412800E2E70620105613000028C5DA0F4A1049A6
:10413800D21A083A5002400D014399800D4952089D
:104148000A43DA8084E7C046240100D000ED00E08D
:10415800CD010010948B012000E100E000E0FFFF9A
:104168000CC8012001BDFFFFAAAA0000CE8B0120C8
:1041780000F0FFFF00F8FFFF70B501240443EFF3E0
:104188000581EFF3108C72B6214A1368002BFCD01E
:10419800BFF35F8F1F4B05001F4AED1A6D416A433D
:1041A800120D1E4D8900AE6852B27658A6421CD038
:1041B8000621595691421CD012215956914222D0BB
:1041C8001E215956914220D02A2159560324914242
:1041D80010D0134B19781A708171BFF35F8F0022CA
:1041E8000B4B1A608CF3108870BDAB680D4C5C509B
:1041F800EFE700246100091989005B18FF21997114
:1042080009499980E5E70124F4E70224F2E7C0466A
:10421800240100D0948B0120AAAA000000ED00E040
:104228000CC80120CD01001001BDFFFF024B9C46C8
:1042380061448900016070474000003470B5114C3A
:10424800114DAC420FD2FF262368002B0CD0FFF78C
:104258001DF801002000FFF7E9FFA680BFF35F8F7C
:104268000834AC42F0D370BDFFF710F8010020000D
:10427800FFF7DCFF2671BFF35F8F0834AC42E3D34E
:10428800F1E7C04694910120A491012010B50400E3
:10429800FEF7FCFF01002000FFF7C8FFFF23237192
:1042A800BFF35F8F10BDC04610B504000120FEF7B4
:1042B800F9FF034BC3189B002360BFF35F8F10BD4A
:1042C80040000034094A83009A1810B51468402247
:1042D800544080322240064CC000A44663441A6011
:1042E800044B9C466044416010BDC04604C0014078
:1042F80004D0014000400140074B8000C3181B68F0
:10430800C90092000A435A400C231340034A9446BA
:10431800604403607047C04604C0014004D00140B7
:104328008000002905D0064B9C464023604403606A
:104338007047044B9C46402360440360F8E7C0463E
:1043480004E0014004F001400123D022834012061A
:1043580093629361094A83009A1811684022514078
:1043680080320A400649C0008C4663441A60054BF7
:104378009C460523604443607047C04604C0014022
:1043880004D0014000400140F8B5DE464E4657468D
:104398004546E0B58B4605000A991800160000F05E
:1043A80071FA0A9B6C001F02324B64199C46A400E8
:1043B8006444636881469F4200D967602B1FDBB263
:1043C8009846012B30D9C02380229B01E3181201A3
:1043D8001A60294BAD0059599A4600291BD173011F
:1043E800E026226853401E40802342465B01E318C2
:1043F8001E60012A30D9802380229B01E318120114
:104408001A6053464A4667605A51F0BCBB46B246EA
:10441800A946A046F8BD586900F034FA01304300B7
:104428001B18033BFDD2DAE75B46012BCBD1C02337
:1044380003229B01E3181A60023AA3681A42FCD0CF
:104448007301E0262268AD0053401E4080230A4ACB
:104458005B019246E3181E605A46216851400322C8
:104468000A401A6001225B469A40A3681A42FCD0AF
:10447800C1E7C0460080004074C30120F0B546463D
:104488004F46D646C0B51F00344B44009C462418FE
:10449800A4006444636888461600FF2B02D8802372
:1044A8005B006360031FDBB29A46012B30D9C0233F
:1044B80080229B01E31812011A60294B8500595983
:1044C800994600291BD17301E026226853401E40FB
:1044D800802352465B01E3181E60012A30D98023ED
:1044E80080229B01E31812011A6080235B0063603D
:1044F8004B465F51E0BCBA46B146A846F0BD586984
:1045080000F0C0F9013043001B18033BFDD2DAE785
:104518004346012BCBD1C02303229B01E3181A6029
:10452800023AA3681A42FCD07301E026226885008B
:1045380053401E4080230A4A5B019146E3181E60DF
:1045480042462168514003220A401A60012342462C
:104558009340A2681342FCD0C1E7C04600800040E7
:1045680074C30120014B8000C058704774C30120F8
:10457800F8B5040021481E0017000D0000F082F96C
:104588000100380000F07EF9069B36041B031E4329
:104598002368002B20DB1A4B1A49E3185A1E934153
:1045A8008022920194465B421B0B174A1B0363440B
:1045B8001360164A13601F000A689743FBD1144B17
:1045C8002560E2182123A06013602368002BFCDA21
:1045D8000823E6601360F8BD3F2322681340AB420E
:1045E800D9D1A3681B051B0D8342D4D1EE22E36801
:1045F800D2021340B342CED1EDE7C046001BB7004C
:104608000040FDBF08C0004000E0004000F000404E
:10461800043000008023024A9B000B43D36270479A
:1046280000800540AA23064A1B0113602133FF338B
:10463800D3600449044B19605368002BFCDA7047B7
:104648000040024000B0FA00006002407047C046D7
:1046580010B50148FEF786FDAC69012070B5074D1D
:10466800074EB54209D20024013E761BB60808CD94
:10467800984723000134B342F9D170BDA4910120B9
:10468800E091012070B5074D074EB54209D20024CC
:10469800013E761BB60808CD984723000134B34283
:1046A800F9D170BDD8910120E0910120054B064A4F
:1046B80006491A60064A074B1A6010000B689843AF
:1046C800FBD1704700E00040BFCDFBFE08C00040B2
:1046D800FE7F3C0000F00040044BDB6C002B03D154
:1046E8008022034BD2021A607047C0460000115066
:1046F8004C201150044A054B1A60054A1368DB0127
:104708008033FBD17047C046FFFFFF0100F0004037
:1047180008C000404022034B9A675A671A67DA6656
:104728007047C04600F0014010B5FEF7CDFD10BD42
:1047380070B5044D044CA968C022200001F03EF871
:10474800AC6070BD00ED00E000000020002310B553
:10475800294C82B0A367FFF765FF0122274B1A6037
:10476800636C012BFCD10322254B1A60224A936B00
:10477800012BFCD1013300930121224A2248043342
:10478800FFF7F6FE052301210093204A2048FFF792
:10479800EFFE0022022104201E4BFFF76FFE0022CD
:1047A800012105201C4BFFF769FE0022002107208C
:1047B8001A4BFFF763FE002200210820174BFFF772
:1047C8005DFE8023DB000093002200210920134BAB
:1047D800FFF7DAFD0022104B00210620FFF74EFEFE
:1047E8000420FFF7BFFE0E4900F04CF8010000203E
:1047F800FFF710FF02B010BD008000403CB0004041
:1048080030B00040002F685900800240008C864775
:1048180000C00240001BB70040597307006CDC025F
:1048280040420F0001480421014B1847E08B01204A
:10483800752E0020124A936F9B0815D29066D16698
:10484800002905D0FFE7FFE7FFE7516F106F7047BA
:1048580004B580210906C2175140002800D0C8437A
:104868000DF0F8FD002104BDF0B5146E556E576FBC
:10487800166FFFF7E3FF1466556657671667F0BDB6
:10488800000000D0114A936F9B0813D2106651663E
:10489800002905D0FFE7FFE7FFE7516F106F70476A
:1048A80004B5002801D00020C0430DF0D3FD00213D
:1048B80004BDC046F0B5146E556E576F166FFFF7FE
:1048C800E5FF1466556657671667F0BD000000D00F
:1048D80094464A4A926F9208624601D228E0C0463E
:1048E800F0B5464E346E756E776F366F00F020F86F
:1048F8009446424A14665566576716676246F0BD85
:1049080094463E4A926F9208624601D254E0C046ED
:10491800F0B53A4E346E756E776F366F00F04CF81E
:104928009446364A14665566576716676246F0BD60
:10493800002B24DB11D000293EDA00B5C9434042E0
:1049480000D1013100F038F8C943404200D10131AB
:10495800DB43524200D1013300BD002AEBD10028CD
:1049680001D1002905D00020C90FC90701D1C043D2
:10497800410800B50DF06EFD0022002300BD00B512
:1049880000290ADBDB43524200D1013300F014F85E
:10499800C943404200D1013100BDC943404200D162
:1049A8000131DB43524200D1013300F005F8DB430B
:1049B800524200D1013300BD002923D1002B18D168
:1049C800002A0CD0BC460D4F38667A6600210023B9
:1049D800FFE7FFE7FFE77A6F386F67467047002801
:1049E80001D00748010000B50DF034FD0022002376
:1049F80000BD02000B00002000217047000000D01D
:104A0800FFFFFFFF002B00D0BFE0130C28D1002AC6
:104A1800E7D080B4114F39667A66FFE7FFE730B414
:104A2800040C7B6F396F1B0423433B667A66FFE7F0
:104A3800FFE7FFE7C04684B27B6F3D6F1B0423434B
:104A48003B667A66FFE7FFE7C04600232C042D0C7F
:104A58007A6F386F00196941B0BC7047000000D008
:104A6800F0B594460025140E01D112020835140F32
:104A780001D112010435940F01D192000235D40FEF
:104A880001D152000135D40B0134254F7C66254CE9
:104A98003C660E0C93B2FFE7FFE7FFE73C6F664307
:104AA800360C7703BE467343DF0B5B04C01AB9416B
:104AB800130C7343DB18C91ACE086643360CB64488
:104AC80093B273431F0F1B01C01AB941130C7343F0
:104AD8001F0B1B05C01AB941860D8F023E43664362
:104AE800360C092D24DB520A7243801A7703460AD2
:104AF8006643360C16235B1BDE40DF40BF19644655
:104B08006643821B7046043506330100D940A8402D
:104B1800C01900D30131A24206D20023F0BD000023
:104B2800000000D0FFFFFFFF121B0130F3D3F1E7B5
:104B380009277F1BFE406446A2B27243801A00D246
:104B48000139220C7243130C1204821A99410B008A
:104B58007046043513370100F940A840801900D386
:104B68000131002B02D1A2420AD2F0BD013000D39C
:104B78000131121BFAD2013BF8D1A24200D2F0BD9A
:104B8800013000D30131121BF7E7F0B51C0C00D03F
:104B980080E00CB400251C0A04D11B02160E334316
:104BA800120208351C0B04D11B01160F33431201E6
:104BB80004359C0B04D19B00960F334392000235B9
:104BC800DC0B02D192185B4101351C009718644137
:104BD8000134464F7C66464C3C660E0CFFE7FFE707
:104BE800FFE7C0463C6F6643360C7703BE4697B274
:104BF8007743C01B00D20139C01B00D201399FB2D4
:104C08007743C91BC91B170C77437E04FF0B801B16
:104C1800B941CE086643360C0C2D33DBB644120B73
:104C28001F053A431B0B97B27743C01B00D20139CB
:104C38009FB27743C91B170C77433E043F0C801B78
:104C4800B941860D8F023E43664329277F1BFE40EC
:104C58000C3D7746AF40BF1930BCA2B2ABB272432D
:104C68007343801A9941220C7243130C1204801A60
:104C7800994102000B000137001BA941F9D2781EA7
:104C88000021F0BD0C277F1BFE4077467F0BAF400D
:104C9800FF19E0E700245D1C07D0144F7D663966D4
:104CA800FFE7FFE7FFE7FFE73C6F95B29EB265437A
:104CB8006643401BB141150C1E0C65436643360420
:104CC8002F0C3E432D04401BB141994204D20200EF
:104CD8000B0020000021F0BD01D19042F7D3801ACB
:104CE800994101349942F2D3F6E70000000000D060
:104CF800FFFFFFFF48404140484018B41B4B5B682A
:104D0800FC46019308BD04DF0F4B002018B4174B75
:104D18001B68FC46019308BD00DF194B0020944630
:104D2800134A926F920809D2624618B40F4BDB6897
:104D3800FC46019308BD0CDFD14D00200C4AF0B5AC
:104D4800146E556E576F166F6246FFF7EEFF084AEE
:104D58001466556657671667F0BD18B4034B9B6811
:104D6800FC46019308BD08DF754C0020189B012004
:104D7800000000D0FFB550404240504059404B40E1
:104D8800594000E0FFB5154F4C00640D03D0BC42FC
:104D980004D10C0314D80020090D09055C00640D2A
:104DA80003D0BC4204D11C030AD800221B0D1B05EA
:104DB80001264B4009D44B4003D58B4200D1824297
:104DC800FFBD9942FCD19042FFBD0B43DB18034362
:104DD8001343F5D0C9434918FFBD0000FF07000081
:104DE80000B5FFF7CFFF804100BDC04600B5FFF713
:104DF800C9FF01D9002000BD012000BD00B5FFF7A3
:104E0800B9FF01D9002000BD012000BD00B5FFF7A2
:104E1800B1FF804100BD012040054A00121804D8A6
:104E28005A00121801D8002070470120704700006E
:104E38000021002805D17047C1174840401AFAD010
:104E4800C90713B5064B1B6898470CBC441CA24005
:104E58001005120B0349091B09051943114310BD1D
:104E6800F8C701201F04000010B54C00620D802314
:104E7800D218DB00D21A5B057E2A10DD9E3A13DABF
:104E8800CC170903490819435242D1406400013440
:104E98001532202A05DAD0400843604310BD0020AF
:104EA80010BD0846604310BDC80FC018013810BDBA
:104EB80018B4044B5B6AFC46019308BD24DF814F9C
:104EC80000200000189B0120132370B51D78012DC8
:104ED80019D014DD1F48FEF70DFA06001E48FEF72C
:104EE80009FA1E4C80223100200000F067FC022DD8
:104EF8002DD01B48FEF7F6F91A4B186070BD1A4BF7
:104F0800164CA364F5E7184B144C23606360A36048
:104F1800E36023616361A361E36123626362A36267
:104F2800E36223636363A363E36323646364A36447
:104F3800E36423656365A365E36523666366A36627
:104F4800E36623676367A367E367A364D1E7064B58
:104F5800A364CEE75344000053460000189B012089
:104F68004C330000F8C70120DD4A002007B5604631
:104F780001880A0A0230DF2AFAD1C9B2820804D3AA
:104F8800028840880004104300E00068014A50503D
:104F9800039007BD189B01200FB403BC0CBCF0B5EF
:104FA8000124E407634000E0F0B50C0DCF0F661E46
:104FB8003605891B640503D3C943404200D3013138
:104FC800640D03D0661CF60A07D0E41B00207F009E
:104FD800791C89078912803C24031D0DDF0F6E1E82
:104FE80036059B1B6D0503D3DB43524200D30133C7
:104FF8006D0D03D06E1CF60A07D0ED1B00227F0052
:105008007B1C9B079B12803D2D032F1B661B58D4CE
:10501800A446202E46DA20371400BC401D00BD40AF
:10502800F24033412A4380185941CB0F05D0C94378
:10503800C043002264425041514162464D0D28D17F
:105048000D0D07D100281FD0241940414941013ACC
:105058000D0DF9D0640006D3013000D30131002CC6
:1050680001D140084000013A0BD4941CE40A04D151
:1050780012051144DB071944F0BDD907204B194329
:1050880000E0D9070020F0BD0029DDD1002CDBD1DC
:10509800F0BD0132C6074008CD0728434908002E55
:1050A800E1D0D9E73C2E29DA203E40371400BC4035
:1050B80000D00124F24014431A00BB401C43D3170C
:1050C800ACE7AC46202F08DA20360400B4400D00C7
:1050D800B540F84039412843A5E73C2F0CDA203F7A
:1050E80040360400B44000D00124F84004430800CE
:1050F800B1400C43C117EAE710001900002494E7F7
:105108000000F07FF0B50C0D661E3605891BE60A17
:105118006405640D02D0651CED0A04D0002001214D
:105128000905803C2403A4461C0D671E3F05DB1BB4
:10513800E70A6405640D02D0651CED0A04D000225C
:1051480001231B05803C24037740644497B484B250
:1051580096B27443070C7E43150C6F4380B26843C4
:10516800361802D3012000043F183004350C00190A
:105178007D41844688B29AB250430C0C62431F0C9E
:105188007C438EB27E43921902D301263604A419B9
:105198001604170C3618674101BC81B29AB2514304
:1051A800040C62431B0C5C4380B25843121802D3B0
:1051B8000120000424181004130C401863412D1812
:1051C8005E410020474106BC88B293B258430C0C9C
:1051D8006343120C544389B251435B1802D3012133
:1051E8000904641819041A0C091862416D1856410B
:1051F8000020474118BCF902720D1143F0026A0DF4
:105208001043ED020A0D03D16D1940414941013B9C
:10521800124E9B1B7600B3420ED26D0007D30130AD
:10522800002671416646354301D1400840001B0500
:10523800C918E4072144F0BD0BDA013306D1013067
:1052480004D101314F0D01D04908F2E7E1070020F0
:10525800F0BD013631050020EBE70000FF03000038
:10526800F0B51C0D671E3F05DB1BE70A6405640DDE
:1052780002D0661CF60A04D0002201231B05803CDC
:105288002403D0252D060026F6432E661E096E66D9
:10529800CE0FF619B44649004F0D02D07E1CF60A0F
:1052A80003D000200021403F3F033E1BB600B4441A
:1052B800013F7F05C91B49082E6F013676089C02FD
:1052C800950D25437543ED137543AD1301356D10E9
:1052D800F603761B0CB4CC02450D2C43A2B2B3B234
:1052E8005A43270C7B43350C6F43A4B26C431B19FC
:1052F80002D3012424043F191C041D0CA4187D4169
:1053080024196D41009A91B2ACB26143170C7C43E9
:105318002B0C5F4392B25A43A41802D30122120401
:10532800BF182204230C52187B41019C6C431B19A3
:10533800520ED9010A434401A01A81B2B2B25143B4
:1053480003145A43360C734387B27743D617D219DE
:1053580000277E4136049B191704160C7F185E41FE
:105368007316ED18F301002680337541A90F06D195
:105378006400690AE8055B0A184309D22FE0042291
:10538800944480337541A90AA8059B0A184326D37B
:10539800404149412404009A019B0D005543641B78
:1053A8004343E41A95B286B27543170C7E43030C47
:1053B8005F4392B25A43B61802D301221204BF18AF
:1053C8003204330C52197B4152429C41002C02D4C6
:1053D8000022013051414008CA071043490802B071
:1053E8006246D7079210084BD218084B9A4203D24C
:1053F80012058918C919F0BD0020002A01DC3900FE
:10540800F0BD01331905F5E7FD030000FE070000B4
:10541800002200B5203200F004F8080000BD0000AA
:1054280000220B150AD410B5944600F031F8141474
:10543800013400DA0021CB17144C2047002000214A
:1054480070476244343A0CD40C2A07DA04009140BD
:10545800904052422032D440214310BDD843D94312
:1054680010BD203207D40C469440524220321141DC
:10547800D040204310BD0800C917203203D452423F
:105488002032104110BD1800190010BDB34F002084
:105498000A0DCC0F531E1B05C91A520503D3C94365
:1054A800404200D30131520D03D0531CDB0A07D010
:1054B800121B00206400611C89078912803A1203BC
:1054C800014BD21A70470000FF03000051434343C9
:1054D800C9188C46110C83B24B4310B4040C6143B9
:1054E80092B280B2504362431C041B0C001910BCDA
:1054F80059411304120CC01851416144704700000F
:105508004840414048400E4B5B6818470C4B1B68AD
:1055180018470C4A936F9B0802D2094BDB6818475F
:10552800F0B5146E556E576F166FFFF7F6FF054A04
:105538001466556657671667F0BD014B9B68184798
:10554800189C0120000000D007B548404140484061
:1055580001E0C04607B54200120E03D0FF2A03D16E
:10556800420218D8C00DC0054A00120E03D0FF2A07
:1055780003D14A020FD8C90DC9050122414005D4FB
:10558800414001D5814207BD884207BD0143491802
:1055980001D0C043001807BD00B5FFF7DBFF01D0FD
:1055A800002000BD012000BDC10FC90700D5404241
:1055B800002817D0F44603B40B4B1B68984706BC69
:1055C80081409E384042803107D20B0607D04900FF
:1055D800490AC0051043084360470130F8E7490A03
:1055E8008902F5E770470000F8C7012041000A0E5C
:1055F80080231B067E2A0BDD9E3A0BDAC117400278
:10560800400818435242D04049000131484370478E
:1056180000207047C00FC01801387047C0420DD332
:1056280000B540004008002100F012F8002801D41D
:10563800404200BD8020000600BD0000034BDB692E
:10564800FC4618471CDF5D5200200000189C012012
:10565800014B5B6A18470000189C0120132310B502
:1056680012481C78FDF746FE0100012C0AD003DD24
:1056780080220F4800F0A2F80E48FDF733FE0E4BCB
:10568800186010BD0A4C5422200000F097F80B4B0C
:105698006365A365E36523666366A366E3662367BC
:1056A8006367A367E3672362E361E5E753460000A6
:1056B800189C01204C330000F8C70120315200200B
:1056C80007B5604601880A0A0230DF2AFAD1C9B252
:1056D800820804D3028840880004104300E0006870
:1056E800014A5050039007BD189C01200021C215A3
:1056F8008032803201D0024A1047002070470000F3
:10570800CD2A000070B504000A4E300010F0F2FBFC
:1057180020000DF0A9FE0500300010F09FFC002DC0
:1057280005D0054B2C199C4201D8280070BD0348B0
:10573800FDF718FD9491012000000420B8690120AC
:1057480070B505000C000B4E300010F0D3FB28009C
:1057580021000EF021FA0500300010F07FFC002D2A
:1057680005D0054B2C199C4201D8280070BD034870
:10577800FDF7F8FC9491012000000420B86901208D
:1057880070B50400054D280010F0B4FB20000DF0A2
:1057980075FE280010F062FC70BDC046949101208F
:1057A80001480421014B1847F08B0120752E002079
:1057B800014B1B6818470000F08B0120014B5B6808
:1057C80018470000F08B012010B5FFF7D9FF10BD76
:1057D8009A4200D2885470477047C046F8B5574679
:1057E800DE464E464546E0B599460A9B07009A466E
:1057F8000D9B884693460B9C9B073BD10C9B9C4278
:105808003DD21E1B0B9415000C005E442A004B462B
:10581800013521002020B847B542F7D1A0460B9C9E
:10582800002C20D0454636195346321B013C185DE2
:1058380029004B46B847002CF6D12B003500984676
:105848000D9B9B070FD55B46EC1A0C9BA3420AD90C
:10585800464698462A004B46310020200134B84776
:1058680001354445F6D32800F0BCBB46B246A946EC
:10587800A046F8BD16001500002CD3D1E0E71600AD
:105888001500002CCED1EEE7F0B54546DE4657466A
:105898004E46E0B585B09C4610AB1B78149F9346E6
:1058A80098460F9C129E139DBB074CD4002D42D1E5
:1058B800B44248D201233B4099460E9B013B9A468D
:1058C800302304E0524601341355A64201D9202C56
:1058D800F8D14B46002B00D183E00E9B013B994643
:1058E8003023A54205D82EE04A4601341355AC4270
:1058F80029D0202CF8D1FB060CD57B0554D4A64220
:1059080063D0A54261D0119B102B50D0022B57D0E9
:10591800202C32D1202301930E9B5A4600930397E3
:1059280063460295FFF75AFF05B0F0BCBB46B24686
:10593800A946A046F0BD01233B40994601233B42BE
:105948002AD1B442B9D3FB061CD57B05DBD4002C85
:10595800D5D1119B102B5BD0119B022B6BD0302320
:1059680001240E9A13704346002B10D17B073ED5B5
:105978002B260E9A631C1655CDE7230001343026DA
:105988000E9AD654202CC5D04346002BEED02D2697
:105998000E9A631C1655BEE74346002B2FD0013DD7
:1059A800B44200D289E798E7119B102BB2D1BB060D
:1059B80037D5202CAED058230E9A13550134A7E7BB
:1059C800202CA7D02300013407E0631E012CC0D08F
:1059D800119A102A31D0022AD1D162260E9AD654B1
:1059E80096E7FB06CED57B0500D488E78BE7230036
:1059F8003E0790D520260E9A013316558BE70C23C7
:105A08003B405A1E9341ED1AB44200D255E764E771
:105A1800BB060ED478230E9A0224137030235370D9
:105A2800A1E7202C00D175E778230E9A135501348D
:105A38006EE75823EFE76033EDE70E9AA61E91460E
:105A48004E44BA0602D55822327098E7782232704E
:105A580095E7C04610B5002800D110BD01F0C4FC80
:105A6800FBE7C046F0B55746DE464E464546E0B52C
:105A780095B083460F00924698461E9A1F9B1000C9
:105A88001900209EFFF7C7F9002800D0EAE11E9808
:105A98001F990122C54B5242FFF7A2F9002800D0F6
:105AA80014E11E981F990122C14B5242FFF7AEF92B
:105AB800002800D0E9E01E981F990022BD4BFFF78F
:105AC800A5F9002800D0C8E01E981F990022BA4BFB
